{
  "contractName": "VotingContract",
  "abi": [
    {
      "inputs": [],
      "stateMutability": "nonpayable",
      "type": "constructor"
    },
    {
      "anonymous": false,
      "inputs": [
        {
          "indexed": false,
          "internalType": "uint256",
          "name": "candidateId",
          "type": "uint256"
        },
        {
          "indexed": false,
          "internalType": "string",
          "name": "name",
          "type": "string"
        }
      ],
      "name": "CandidateAdded",
      "type": "event"
    },
    {
      "anonymous": false,
      "inputs": [],
      "name": "ElectionEnded",
      "type": "event"
    },
    {
      "anonymous": false,
      "inputs": [],
      "name": "ElectionStarted",
      "type": "event"
    },
    {
      "anonymous": false,
      "inputs": [
        {
          "indexed": false,
          "internalType": "address",
          "name": "voter",
          "type": "address"
        },
        {
          "indexed": false,
          "internalType": "uint256",
          "name": "candidateId",
          "type": "uint256"
        }
      ],
      "name": "VoteCasted",
      "type": "event"
    },
    {
      "anonymous": false,
      "inputs": [
        {
          "indexed": false,
          "internalType": "address",
          "name": "voter",
          "type": "address"
        }
      ],
      "name": "VoterRegistered",
      "type": "event"
    },
    {
      "anonymous": false,
      "inputs": [
        {
          "indexed": false,
          "internalType": "string",
          "name": "name",
          "type": "string"
        }
      ],
      "name": "WriteInApproved",
      "type": "event"
    },
    {
      "inputs": [
        {
          "internalType": "string",
          "name": "",
          "type": "string"
        }
      ],
      "name": "approvedWriteIns",
      "outputs": [
        {
          "internalType": "bool",
          "name": "",
          "type": "bool"
        }
      ],
      "stateMutability": "view",
      "type": "function"
    },
    {
      "inputs": [],
      "name": "candidateCount",
      "outputs": [
        {
          "internalType": "uint256",
          "name": "",
          "type": "uint256"
        }
      ],
      "stateMutability": "view",
      "type": "function"
    },
    {
      "inputs": [
        {
          "internalType": "uint256",
          "name": "",
          "type": "uint256"
        }
      ],
      "name": "candidates",
      "outputs": [
        {
          "internalType": "string",
          "name": "",
          "type": "string"
        }
      ],
      "stateMutability": "view",
      "type": "function"
    },
    {
      "inputs": [],
      "name": "electionOngoing",
      "outputs": [
        {
          "internalType": "bool",
          "name": "",
          "type": "bool"
        }
      ],
      "stateMutability": "view",
      "type": "function"
    },
    {
      "inputs": [
        {
          "internalType": "address",
          "name": "",
          "type": "address"
        }
      ],
      "name": "hasVoted",
      "outputs": [
        {
          "internalType": "bool",
          "name": "",
          "type": "bool"
        }
      ],
      "stateMutability": "view",
      "type": "function"
    },
    {
      "inputs": [],
      "name": "owner",
      "outputs": [
        {
          "internalType": "address",
          "name": "",
          "type": "address"
        }
      ],
      "stateMutability": "view",
      "type": "function"
    },
    {
      "inputs": [],
      "name": "phase",
      "outputs": [
        {
          "internalType": "enum VotingContract.ElectionPhase",
          "name": "",
          "type": "uint8"
        }
      ],
      "stateMutability": "view",
      "type": "function"
    },
    {
      "inputs": [
        {
          "internalType": "uint256",
          "name": "",
          "type": "uint256"
        }
      ],
      "name": "votes",
      "outputs": [
        {
          "internalType": "uint256",
          "name": "",
          "type": "uint256"
        }
      ],
      "stateMutability": "view",
      "type": "function"
    },
    {
      "inputs": [
        {
          "internalType": "address",
          "name": "_voter",
          "type": "address"
        }
      ],
      "name": "registerVoter",
      "outputs": [],
      "stateMutability": "nonpayable",
      "type": "function"
    },
    {
      "inputs": [
        {
          "internalType": "enum VotingContract.ElectionPhase",
          "name": "_phase",
          "type": "uint8"
        }
      ],
      "name": "setPhase",
      "outputs": [],
      "stateMutability": "nonpayable",
      "type": "function"
    },
    {
      "inputs": [
        {
          "internalType": "string",
          "name": "_name",
          "type": "string"
        }
      ],
      "name": "addCandidate",
      "outputs": [],
      "stateMutability": "nonpayable",
      "type": "function"
    },
    {
      "inputs": [
        {
          "internalType": "string",
          "name": "_name",
          "type": "string"
        }
      ],
      "name": "approveWriteIn",
      "outputs": [],
      "stateMutability": "nonpayable",
      "type": "function"
    },
    {
      "inputs": [],
      "name": "startElection",
      "outputs": [],
      "stateMutability": "nonpayable",
      "type": "function"
    },
    {
      "inputs": [
        {
          "internalType": "uint256",
          "name": "_candidateId",
          "type": "uint256"
        }
      ],
      "name": "castVote",
      "outputs": [],
      "stateMutability": "nonpayable",
      "type": "function"
    },
    {
      "inputs": [],
      "name": "endElection",
      "outputs": [],
      "stateMutability": "nonpayable",
      "type": "function"
    },
    {
      "inputs": [
        {
          "internalType": "uint256",
          "name": "_candidateId",
          "type": "uint256"
        }
      ],
      "name": "getResults",
      "outputs": [
        {
          "internalType": "uint256",
          "name": "",
          "type": "uint256"
        }
      ],
      "stateMutability": "view",
      "type": "function"
    },
    {
      "inputs": [],
      "name": "getAllResults",
      "outputs": [
        {
          "internalType": "string[]",
          "name": "",
          "type": "string[]"
        },
        {
          "internalType": "uint256[]",
          "name": "",
          "type": "uint256[]"
        }
      ],
      "stateMutability": "view",
      "type": "function"
    },
    {
      "inputs": [
        {
          "internalType": "uint256",
          "name": "start",
          "type": "uint256"
        },
        {
          "internalType": "uint256",
          "name": "end",
          "type": "uint256"
        }
      ],
      "name": "getResultsByRange",
      "outputs": [
        {
          "internalType": "string[]",
          "name": "",
          "type": "string[]"
        },
        {
          "internalType": "uint256[]",
          "name": "",
          "type": "uint256[]"
        }
      ],
      "stateMutability": "view",
      "type": "function"
    }
  ],
  "bytecode": "0x608060405234801561000f575f80fd5b50335f806101000a81548173ffffffffffffffffffffffffffffffffffffffff021916908373ffffffffffffffffffffffffffffffffffffffff1602179055505f600260016101000a81548160ff021916908360038111156100745761007361007e565b5b02179055506100ab565b7f4e487b71000000000000000000000000000000000000000000000000000000005f52602160045260245ffd5b612358806100b85f395ff3fe608060405234801561000f575f80fd5b5060043610610114575f3560e01c806376d9be08116100a0578063a9a981a31161006f578063a9a981a3146102cc578063b1c9fe6e146102ea578063c03afb5914610308578063f5bebbf214610324578063fd091d0e1461034057610114565b806376d9be081461024157806381a60c0d146102605780638da5cb5b14610290578063972b4192146102ae57610114565b80633eb76b9c116100e75780633eb76b9c146101c5578063462e91ec146101e157806359f78468146101fd5780635df813301461020757806362d73eb81461023757610114565b806309eef43e1461011857806333005055146101485780633477ee2e1461017957806338db6dd3146101a9575b5f80fd5b610132600480360381019061012d91906114e9565b610370565b60405161013f919061152e565b60405180910390f35b610162600480360381019061015d919061157a565b61038d565b6040516101709291906117b4565b60405180910390f35b610193600480360381019061018e91906117e9565b610649565b6040516101a0919061185c565b60405180910390f35b6101c360048036038101906101be91906114e9565b6106e4565b005b6101df60048036038101906101da91906117e9565b61071e565b005b6101fb60048036038101906101f691906119a8565b610969565b005b610205610ae4565b005b610221600480360381019061021c91906117e9565b610c5b565b60405161022e91906119fe565b60405180910390f35b61023f610c70565b005b610249610e2b565b6040516102579291906117b4565b60405180910390f35b61027a600480360381019061027591906117e9565b611075565b60405161028791906119fe565b60405180910390f35b610298611157565b6040516102a59190611a26565b60405180910390f35b6102b661117a565b6040516102c3919061152e565b60405180910390f35b6102d461118c565b6040516102e191906119fe565b60405180910390f35b6102f2611192565b6040516102ff9190611ab2565b60405180910390f35b610322600480360381019061031d9190611aee565b6111a5565b005b61033e600480360381019061033991906119a8565b6112d4565b005b61035a600480360381019061035591906119a8565b611449565b604051610367919061152e565b60405180910390f35b6005602052805f5260405f205f915054906101000a900460ff1681565b60608060038060038111156103a5576103a4611a3f565b5b600260019054906101000a900460ff1660038111156103c7576103c6611a3f565b5b14610407576040517f08c379a00000000000000000000000000000000000000000000000000000000081526004016103fe90611b63565b60405180910390fd5b5f8511801561041857506001548411155b80156104245750838511155b610463576040517f08c379a000000000000000000000000000000000000000000000000000000000815260040161045a90611bcb565b60405180910390fd5b5f600186866104729190611c16565b61047c9190611c49565b90505f8167ffffffffffffffff81111561049957610498611884565b5b6040519080825280602002602001820160405280156104cc57816020015b60608152602001906001900390816104b75790505b5090505f8267ffffffffffffffff8111156104ea576104e9611884565b5b6040519080825280602002602001820160405280156105185781602001602082028036833780820191505090505b5090505f8890505b8781116106375760035f8281526020019081526020015f20805461054390611ca9565b80601f016020809104026020016040519081016040528092919081815260200182805461056f90611ca9565b80156105ba5780601f10610591576101008083540402835291602001916105ba565b820191905f5260205f20905b81548152906001019060200180831161059d57829003601f168201915b5050505050838a836105cc9190611c16565b815181106105dd576105dc611cd9565b5b602002602001018190525060065f8281526020019081526020015f2054828a836106079190611c16565b8151811061061857610617611cd9565b5b602002602001018181525050808061062f90611d06565b915050610520565b50818195509550505050509250929050565b6003602052805f5260405f205f91509050805461066590611ca9565b80601f016020809104026020016040519081016040528092919081815260200182805461069190611ca9565b80156106dc5780601f106106b3576101008083540402835291602001916106dc565b820191905f5260205f20905b8154815290600101906020018083116106bf57829003601f168201915b505050505081565b7fb6be2187d059cc2a55fe29e0e503b566e1e0f8c8780096e185429350acffd3dd816040516107139190611a26565b60405180910390a150565b600280600381111561073357610732611a3f565b5b600260019054906101000a900460ff16600381111561075557610754611a3f565b5b14610795576040517f08c379a000000000000000000000000000000000000000000000000000000000815260040161078c90611b63565b60405180910390fd5b60055f3373ffffffffffffffffffffffffffffffffffffffff1673ffffffffffffffffffffffffffffffffffffffff1681526020019081526020015f205f9054906101000a900460ff161561081f576040517f08c379a000000000000000000000000000000000000000000000000000000000815260040161081690611d97565b60405180910390fd5b5f8211801561083057506001548211155b806108725750600460035f8481526020019081526020015f206040516108569190611e51565b90815260200160405180910390205f9054906101000a900460ff165b6108b1576040517f08c379a00000000000000000000000000000000000000000000000000000000081526004016108a890611eb1565b60405180910390fd5b60065f8381526020019081526020015f205f8154809291906108d290611d06565b9190505550600160055f3373ffffffffffffffffffffffffffffffffffffffff1673ffffffffffffffffffffffffffffffffffffffff1681526020019081526020015f205f6101000a81548160ff0219169083151502179055507fd0e6c39f2e086dc49f1524b47725526a56945cd1ff661f37976f1725a1e56986338360405161095d929190611ecf565b60405180910390a15050565b5f8054906101000a900473ffffffffffffffffffffffffffffffffffffffff1673ffffffffffffffffffffffffffffffffffffffff163373ffffffffffffffffffffffffffffffffffffffff16146109f6576040517f08c379a00000000000000000000000000000000000000000000000000000000081526004016109ed90611f40565b60405180910390fd5b6001806003811115610a0b57610a0a611a3f565b5b600260019054906101000a900460ff166003811115610a2d57610a2c611a3f565b5b14610a6d576040517f08c379a0000000000000000000000000000000000000000000000000000000008152600401610a6490611b63565b60405180910390fd5b60015f815480929190610a7f90611d06565b91905055508160035f60015481526020019081526020015f209081610aa491906120e9565b507fe83b2a43e7e82d975c8a0a6d2f045153c869e111136a34d1889ab7b598e396a360015483604051610ad89291906121b8565b60405180910390a15050565b5f8054906101000a900473ffffffffffffffffffffffffffffffffffffffff1673ffffffffffffffffffffffffffffffffffffffff163373ffffffffffffffffffffffffffffffffffffffff1614610b71576040517f08c379a0000000000000000000000000000000000000000000000000000000008152600401610b6890611f40565b60405180910390fd5b6002806003811115610b8657610b85611a3f565b5b600260019054906101000a900460ff166003811115610ba857610ba7611a3f565b5b14610be8576040517f08c379a0000000000000000000000000000000000000000000000000000000008152600401610bdf90611b63565b60405180910390fd5b6003600260016101000a81548160ff02191690836003811115610c0e57610c0d611a3f565b5b02179055505f60025f6101000a81548160ff0219169083151502179055507f66ec723071e4bb646f7b35d31bc2dee8510979bd8c180edd0690d4f5e802f1e460405160405180910390a150565b6006602052805f5260405f205f915090505481565b5f8054906101000a900473ffffffffffffffffffffffffffffffffffffffff1673ffffffffffffffffffffffffffffffffffffffff163373ffffffffffffffffffffffffffffffffffffffff1614610cfd576040517f08c379a0000000000000000000000000000000000000000000000000000000008152600401610cf490611f40565b60405180910390fd5b6001806003811115610d1257610d11611a3f565b5b600260019054906101000a900460ff166003811115610d3457610d33611a3f565b5b14610d74576040517f08c379a0000000000000000000000000000000000000000000000000000000008152600401610d6b90611b63565b60405180910390fd5b5f60015411610db8576040517f08c379a0000000000000000000000000000000000000000000000000000000008152600401610daf90612256565b60405180910390fd5b60028060016101000a81548160ff02191690836003811115610ddd57610ddc611a3f565b5b0217905550600160025f6101000a81548160ff0219169083151502179055507fc475c26aa25ed8e85a7faa790e5f63b5d7ee1025f12821f4c9bfddd36ab4d11260405160405180910390a150565b6060806003806003811115610e4357610e42611a3f565b5b600260019054906101000a900460ff166003811115610e6557610e64611a3f565b5b14610ea5576040517f08c379a0000000000000000000000000000000000000000000000000000000008152600401610e9c90611b63565b60405180910390fd5b5f60015467ffffffffffffffff811115610ec257610ec1611884565b5b604051908082528060200260200182016040528015610ef557816020015b6060815260200190600190039081610ee05790505b5090505f60015467ffffffffffffffff811115610f1557610f14611884565b5b604051908082528060200260200182016040528015610f435781602001602082028036833780820191505090505b5090505f600190505b60015481116110675760035f8281526020019081526020015f208054610f7190611ca9565b80601f0160208091040260200160405190810160405280929190818152602001828054610f9d90611ca9565b8015610fe85780601f10610fbf57610100808354040283529160200191610fe8565b820191905f5260205f20905b815481529060010190602001808311610fcb57829003601f168201915b505050505083600183610ffb9190611c16565b8151811061100c5761100b611cd9565b5b602002602001018190525060065f8281526020019081526020015f2054826001836110379190611c16565b8151811061104857611047611cd9565b5b602002602001018181525050808061105f90611d06565b915050610f4c565b508181945094505050509091565b5f600380600381111561108b5761108a611a3f565b5b600260019054906101000a900460ff1660038111156110ad576110ac611a3f565b5b146110ed576040517f08c379a00000000000000000000000000000000000000000000000000000000081526004016110e490611b63565b60405180910390fd5b5f831180156110fe57506001548311155b61113d576040517f08c379a000000000000000000000000000000000000000000000000000000000815260040161113490611eb1565b60405180910390fd5b60065f8481526020019081526020015f2054915050919050565b5f8054906101000a900473ffffffffffffffffffffffffffffffffffffffff1681565b60025f9054906101000a900460ff1681565b60015481565b600260019054906101000a900460ff1681565b5f8054906101000a900473ffffffffffffffffffffffffffffffffffffffff1673ffffffffffffffffffffffffffffffffffffffff163373ffffffffffffffffffffffffffffffffffffffff1614611232576040517f08c379a000000000000000000000000000000000000000000000000000000000815260040161122990611f40565b60405180910390fd5b60038081111561124557611244611a3f565b5b600260019054906101000a900460ff16600381111561126757611266611a3f565b5b036112a7576040517f08c379a000000000000000000000000000000000000000000000000000000000815260040161129e906122be565b60405180910390fd5b80600260016101000a81548160ff021916908360038111156112cc576112cb611a3f565b5b021790555050565b5f8054906101000a900473ffffffffffffffffffffffffffffffffffffffff1673ffffffffffffffffffffffffffffffffffffffff163373ffffffffffffffffffffffffffffffffffffffff1614611361576040517f08c379a000000000000000000000000000000000000000000000000000000000815260040161135890611f40565b60405180910390fd5b600180600381111561137657611375611a3f565b5b600260019054906101000a900460ff16600381111561139857611397611a3f565b5b146113d8576040517f08c379a00000000000000000000000000000000000000000000000000000000081526004016113cf90611b63565b60405180910390fd5b60016004836040516113ea919061230c565b90815260200160405180910390205f6101000a81548160ff0219169083151502179055507fef3a93bd3eddf25ebe7f30119c8b78c2b8e47c9a0b3531af4d5658b9171a386f8260405161143d919061185c565b60405180910390a15050565b6004818051602081018201805184825260208301602085012081835280955050505050505f915054906101000a900460ff1681565b5f604051905090565b5f80fd5b5f80fd5b5f73ffffffffffffffffffffffffffffffffffffffff82169050919050565b5f6114b88261148f565b9050919050565b6114c8816114ae565b81146114d2575f80fd5b50565b5f813590506114e3816114bf565b92915050565b5f602082840312156114fe576114fd611487565b5b5f61150b848285016114d5565b91505092915050565b5f8115159050919050565b61152881611514565b82525050565b5f6020820190506115415f83018461151f565b92915050565b5f819050919050565b61155981611547565b8114611563575f80fd5b50565b5f8135905061157481611550565b92915050565b5f80604083850312156115905761158f611487565b5b5f61159d85828601611566565b92505060206115ae85828601611566565b9150509250929050565b5f81519050919050565b5f82825260208201905092915050565b5f819050602082019050919050565b5f81519050919050565b5f82825260208201905092915050565b5f5b838110156116185780820151818401526020810190506115fd565b5f8484015250505050565b5f601f19601f8301169050919050565b5f61163d826115e1565b61164781856115eb565b93506116578185602086016115fb565b61166081611623565b840191505092915050565b5f6116768383611633565b905092915050565b5f602082019050919050565b5f611694826115b8565b61169e81856115c2565b9350836020820285016116b0856115d2565b805f5b858110156116eb57848403895281516116cc858261166b565b94506116d78361167e565b925060208a019950506001810190506116b3565b50829750879550505050505092915050565b5f81519050919050565b5f82825260208201905092915050565b5f819050602082019050919050565b61172f81611547565b82525050565b5f6117408383611726565b60208301905092915050565b5f602082019050919050565b5f611762826116fd565b61176c8185611707565b935061177783611717565b805f5b838110156117a757815161178e8882611735565b97506117998361174c565b92505060018101905061177a565b5085935050505092915050565b5f6040820190508181035f8301526117cc818561168a565b905081810360208301526117e08184611758565b90509392505050565b5f602082840312156117fe576117fd611487565b5b5f61180b84828501611566565b91505092915050565b5f82825260208201905092915050565b5f61182e826115e1565b6118388185611814565b93506118488185602086016115fb565b61185181611623565b840191505092915050565b5f6020820190508181035f8301526118748184611824565b905092915050565b5f80fd5b5f80fd5b7f4e487b71000000000000000000000000000000000000000000000000000000005f52604160045260245ffd5b6118ba82611623565b810181811067ffffffffffffffff821117156118d9576118d8611884565b5b80604052505050565b5f6118eb61147e565b90506118f782826118b1565b919050565b5f67ffffffffffffffff82111561191657611915611884565b5b61191f82611623565b9050602081019050919050565b828183375f83830152505050565b5f61194c611947846118fc565b6118e2565b90508281526020810184848401111561196857611967611880565b5b61197384828561192c565b509392505050565b5f82601f83011261198f5761198e61187c565b5b813561199f84826020860161193a565b91505092915050565b5f602082840312156119bd576119bc611487565b5b5f82013567ffffffffffffffff8111156119da576119d961148b565b5b6119e68482850161197b565b91505092915050565b6119f881611547565b82525050565b5f602082019050611a115f8301846119ef565b92915050565b611a20816114ae565b82525050565b5f602082019050611a395f830184611a17565b92915050565b7f4e487b71000000000000000000000000000000000000000000000000000000005f52602160045260245ffd5b60048110611a7d57611a7c611a3f565b5b50565b5f819050611a8d82611a6c565b919050565b5f611a9c82611a80565b9050919050565b611aac81611a92565b82525050565b5f602082019050611ac55f830184611aa3565b92915050565b60048110611ad7575f80fd5b50565b5f81359050611ae881611acb565b92915050565b5f60208284031215611b0357611b02611487565b5b5f611b1084828501611ada565b91505092915050565b7f496e76616c696420706861736520666f72207468697320616374696f6e0000005f82015250565b5f611b4d601d83611814565b9150611b5882611b19565b602082019050919050565b5f6020820190508181035f830152611b7a81611b41565b9050919050565b7f496e76616c69642072616e6765000000000000000000000000000000000000005f82015250565b5f611bb5600d83611814565b9150611bc082611b81565b602082019050919050565b5f6020820190508181035f830152611be281611ba9565b9050919050565b7f4e487b71000000000000000000000000000000000000000000000000000000005f52601160045260245ffd5b5f611c2082611547565b9150611c2b83611547565b9250828203905081811115611c4357611c42611be9565b5b92915050565b5f611c5382611547565b9150611c5e83611547565b9250828201905080821115611c7657611c75611be9565b5b92915050565b7f4e487b71000000000000000000000000000000000000000000000000000000005f52602260045260245ffd5b5f6002820490506001821680611cc057607f821691505b602082108103611cd357611cd2611c7c565b5b50919050565b7f4e487b71000000000000000000000000000000000000000000000000000000005f52603260045260245ffd5b5f611d1082611547565b91507fffffffffffffffffffffffffffffffffffffffffffffffffffffffffffffffff8203611d4257611d41611be9565b5b600182019050919050565b7f596f75206861766520616c726561647920766f746564000000000000000000005f82015250565b5f611d81601683611814565b9150611d8c82611d4d565b602082019050919050565b5f6020820190508181035f830152611dae81611d75565b9050919050565b5f81905092915050565b5f819050815f5260205f209050919050565b5f8154611ddd81611ca9565b611de78186611db5565b9450600182165f8114611e015760018114611e1657611e48565b60ff1983168652811515820286019350611e48565b611e1f85611dbf565b5f5b83811015611e4057815481890152600182019150602081019050611e21565b838801955050505b50505092915050565b5f611e5c8284611dd1565b915081905092915050565b7f496e76616c69642063616e6469646174652049440000000000000000000000005f82015250565b5f611e9b601483611814565b9150611ea682611e67565b602082019050919050565b5f6020820190508181035f830152611ec881611e8f565b9050919050565b5f604082019050611ee25f830185611a17565b611eef60208301846119ef565b9392505050565b7f596f7520617265206e6f7420746865206f776e657200000000000000000000005f82015250565b5f611f2a601583611814565b9150611f3582611ef6565b602082019050919050565b5f6020820190508181035f830152611f5781611f1e565b9050919050565b5f6020601f8301049050919050565b5f82821b905092915050565b5f60088302611fa87fffffffffffffffffffffffffffffffffffffffffffffffffffffffffffffffff82611f6d565b611fb28683611f6d565b95508019841693508086168417925050509392505050565b5f819050919050565b5f611fed611fe8611fe384611547565b611fca565b611547565b9050919050565b5f819050919050565b61200683611fd3565b61201a61201282611ff4565b848454611f79565b825550505050565b5f90565b61202e612022565b612039818484611ffd565b505050565b5b8181101561205c576120515f82612026565b60018101905061203f565b5050565b601f8211156120a15761207281611dbf565b61207b84611f5e565b8101602085101561208a578190505b61209e61209685611f5e565b83018261203e565b50505b505050565b5f82821c905092915050565b5f6120c15f19846008026120a6565b1980831691505092915050565b5f6120d983836120b2565b9150826002028217905092915050565b6120f2826115e1565b67ffffffffffffffff81111561210b5761210a611884565b5b6121158254611ca9565b612120828285612060565b5f60209050601f831160018114612151575f841561213f578287015190505b61214985826120ce565b8655506121b0565b601f19841661215f86611dbf565b5f5b8281101561218657848901518255600182019150602085019450602081019050612161565b868310156121a3578489015161219f601f8916826120b2565b8355505b6001600288020188555050505b505050505050565b5f6040820190506121cb5f8301856119ef565b81810360208301526121dd8184611824565b90509392505050565b7f4e6f2063616e6469646174657320746f2073746172742074686520656c6563745f8201527f696f6e0000000000000000000000000000000000000000000000000000000000602082015250565b5f612240602383611814565b915061224b826121e6565b604082019050919050565b5f6020820190508181035f83015261226d81612234565b9050919050565b7f456c656374696f6e2068617320656e64656400000000000000000000000000005f82015250565b5f6122a8601283611814565b91506122b382612274565b602082019050919050565b5f6020820190508181035f8301526122d58161229c565b9050919050565b5f6122e6826115e1565b6122f08185611db5565b93506123008185602086016115fb565b80840191505092915050565b5f61231782846122dc565b91508190509291505056fea2646970667358221220072e4905a4d20fb04866e55ec23447a8014bf66d5887e186aacb0dc63e7aed0964736f6c63430008150033",
  "immutableReferences": {},
  "source": "// SPDX-License-Identifier: MIT\r\npragma solidity ^0.8.0;\r\n\r\nimport \"./IVotingSystem.sol\";\r\n\r\n/// @title Blockchain Voting System\r\n/// @notice Implements a secure and transparent voting system\r\ncontract VotingContract is IVotingSystem {\r\n    // State variables\r\n    address public owner; // Address of the contract owner\r\n    uint public candidateCount; // Tracks the total number of candidates\r\n    bool public electionOngoing; // Indicates if the election is currently active\r\n\r\n    /// @notice Defines the phases of an election\r\n    /// @dev Ensures the election progresses in a structured way\r\n    enum ElectionPhase { NotStarted, Registration, Voting, Ended }\r\n    ElectionPhase public phase; // Current phase of the election\r\n\r\n    mapping(uint => string) public candidates; // Maps candidate IDs to their names\r\n    mapping(string => bool) public approvedWriteIns; // Tracks approved write-in candidates\r\n    mapping(address => bool) public hasVoted; // Tracks whether an address has already voted\r\n    mapping(uint => uint) public votes; // Tracks votes for each candidate by ID\r\n\r\n    /// @notice Initializes the contract and sets the owner\r\n    constructor() {\r\n        owner = msg.sender;\r\n        phase = ElectionPhase.NotStarted;\r\n    }\r\n\r\n    /// @notice Restricts function access to the owner\r\n    modifier onlyOwner() {\r\n        require(msg.sender == owner, \"You are not the owner\");\r\n        _;\r\n    }\r\n\r\n    /// @notice Restricts functions to specific election phases\r\n    /// @param _phase The required phase for the function to execute\r\n    modifier inPhase(ElectionPhase _phase) {\r\n        require(phase == _phase, \"Invalid phase for this action\");\r\n        _;\r\n    }\r\n\r\n    /// @notice Registers a voter (stub function for demonstration purposes)\r\n    /// @param _voter Address of the voter\r\n    function registerVoter(address _voter) external override {\r\n        // For demonstration purposes, no implementation\r\n        emit VoterRegistered(_voter);\r\n    }\r\n\r\n    /// @notice Sets the current phase of the election\r\n    /// @param _phase The phase to transition to\r\n    function setPhase(ElectionPhase _phase) external onlyOwner {\r\n        require(phase != ElectionPhase.Ended, \"Election has ended\");\r\n        phase = _phase;\r\n    }\r\n\r\n    /// @notice Adds a new candidate during the registration phase\r\n    /// @param _name The name of the candidate\r\n    function addCandidate(string memory _name) external onlyOwner inPhase(ElectionPhase.Registration) {\r\n        candidateCount++;\r\n        candidates[candidateCount] = _name;\r\n        emit CandidateAdded(candidateCount, _name);\r\n    }\r\n\r\n    /// @notice Approves a write-in candidate during the registration phase\r\n    /// @param _name The name of the write-in candidate\r\n    function approveWriteIn(string memory _name) external onlyOwner inPhase(ElectionPhase.Registration) {\r\n        approvedWriteIns[_name] = true;\r\n        emit WriteInApproved(_name);\r\n    }\r\n\r\n    /// @notice Starts the election, transitioning to the voting phase\r\n    function startElection() external onlyOwner inPhase(ElectionPhase.Registration) {\r\n        require(candidateCount > 0, \"No candidates to start the election\");\r\n        phase = ElectionPhase.Voting;\r\n        electionOngoing = true;\r\n        emit ElectionStarted();\r\n    }\r\n\r\n    /// @notice Allows a voter to cast their vote\r\n    /// @param _candidateId The ID of the candidate to vote for\r\n    function castVote(uint _candidateId) external inPhase(ElectionPhase.Voting) {\r\n        require(!hasVoted[msg.sender], \"You have already voted\");\r\n        require(\r\n            (_candidateId > 0 && _candidateId <= candidateCount) ||\r\n            approvedWriteIns[candidates[_candidateId]],\r\n            \"Invalid candidate ID\"\r\n        );\r\n\r\n        votes[_candidateId]++;\r\n        hasVoted[msg.sender] = true;\r\n        emit VoteCasted(msg.sender, _candidateId);\r\n    }\r\n\r\n    /// @notice Ends the election, transitioning to the ended phase\r\n    function endElection() external onlyOwner inPhase(ElectionPhase.Voting) {\r\n        phase = ElectionPhase.Ended;\r\n        electionOngoing = false;\r\n        emit ElectionEnded();\r\n    }\r\n\r\n    /// @notice Retrieves results for a specific candidate\r\n    /// @param _candidateId The ID of the candidate\r\n    /// @return The number of votes for the candidate\r\n    function getResults(uint _candidateId) external view inPhase(ElectionPhase.Ended) returns (uint) {\r\n        require(_candidateId > 0 && _candidateId <= candidateCount, \"Invalid candidate ID\");\r\n        return votes[_candidateId];\r\n    }\r\n\r\n    /// @notice Retrieves results for all candidates\r\n    /// @return Arrays containing candidate names and their respective vote counts\r\n    function getAllResults() external view inPhase(ElectionPhase.Ended) returns (string[] memory, uint[] memory) {\r\n        string[] memory candidateNames = new string[](candidateCount);\r\n        uint[] memory candidateVotes = new uint[](candidateCount);\r\n\r\n        for (uint i = 1; i <= candidateCount; i++) {\r\n            candidateNames[i - 1] = candidates[i];\r\n            candidateVotes[i - 1] = votes[i];\r\n        }\r\n\r\n        return (candidateNames, candidateVotes);\r\n    }\r\n\r\n    /// @notice Retrieves results for a range of candidates\r\n    /// @param start The starting candidate ID (inclusive)\r\n    /// @param end The ending candidate ID (inclusive)\r\n    /// @return Arrays containing candidate names and their respective vote counts\r\n    function getResultsByRange(uint start, uint end) external view inPhase(ElectionPhase.Ended) returns (string[] memory, uint[] memory) {\r\n        require(start > 0 && end <= candidateCount && start <= end, \"Invalid range\");\r\n        uint rangeSize = end - start + 1;\r\n\r\n        string[] memory candidateNames = new string[](rangeSize);\r\n        uint[] memory candidateVotes = new uint[](rangeSize);\r\n\r\n        for (uint i = start; i <= end; i++) {\r\n            candidateNames[i - start] = candidates[i];\r\n            candidateVotes[i - start] = votes[i];\r\n        }\r\n\r\n        return (candidateNames, candidateVotes);\r\n    }\r\n}\r\n",
  "sourcePath": "C:\\Users\\pbeau\\Blockchain\\blockchain-voting-system\\contracts\\VotingContract.sol",
  "compiler": {
    "name": "solc",
    "version": "0.8.21+commit.d9974bed.Emscripten.clang"
  },
  "schemaVersion": "3.4.16",
  "updatedAt": "2024-12-10T01:46:07.216Z",
  "devdoc": {
    "events": {
      "CandidateAdded(uint256,string)": {
        "params": {
          "candidateId": "ID of the candidate added",
          "name": "Name of the candidate"
        }
      },
      "VoteCasted(address,uint256)": {
        "params": {
          "candidateId": "ID of the candidate voted for",
          "voter": "Address of the voter"
        }
      },
      "VoterRegistered(address)": {
        "params": {
          "voter": "Address of the voter"
        }
      },
      "WriteInApproved(string)": {
        "params": {
          "name": "Name of the approved write-in candidate"
        }
      }
    },
    "kind": "dev",
    "methods": {
      "addCandidate(string)": {
        "params": {
          "_name": "The name of the candidate"
        }
      },
      "approveWriteIn(string)": {
        "params": {
          "_name": "The name of the write-in candidate"
        }
      },
      "castVote(uint256)": {
        "params": {
          "_candidateId": "The ID of the candidate to vote for"
        }
      },
      "getAllResults()": {
        "returns": {
          "_0": "Arrays containing candidate names and their respective vote counts"
        }
      },
      "getResults(uint256)": {
        "params": {
          "_candidateId": "The ID of the candidate"
        },
        "returns": {
          "_0": "The number of votes for the candidate"
        }
      },
      "getResultsByRange(uint256,uint256)": {
        "params": {
          "end": "The ending candidate ID (inclusive)",
          "start": "The starting candidate ID (inclusive)"
        },
        "returns": {
          "_0": "Arrays containing candidate names and their respective vote counts"
        }
      },
      "registerVoter(address)": {
        "params": {
          "_voter": "Address of the voter"
        }
      },
      "setPhase(uint8)": {
        "params": {
          "_phase": "The phase to transition to"
        }
      }
    },
    "title": "Blockchain Voting System",
    "version": 1
  },
  "userdoc": {
    "events": {
      "CandidateAdded(uint256,string)": {
        "notice": "Emitted when a candidate is added"
      },
      "ElectionEnded()": {
        "notice": "Emitted when the election ends"
      },
      "ElectionStarted()": {
        "notice": "Emitted when the election starts"
      },
      "VoteCasted(address,uint256)": {
        "notice": "Emitted when a vote is cast"
      },
      "VoterRegistered(address)": {
        "notice": "Emitted when a voter registers"
      },
      "WriteInApproved(string)": {
        "notice": "Emitted when a write-in candidate is approved"
      }
    },
    "kind": "user",
    "methods": {
      "addCandidate(string)": {
        "notice": "Adds a new candidate during the registration phase"
      },
      "approveWriteIn(string)": {
        "notice": "Approves a write-in candidate during the registration phase"
      },
      "castVote(uint256)": {
        "notice": "Allows a voter to cast their vote"
      },
      "constructor": {
        "notice": "Initializes the contract and sets the owner"
      },
      "endElection()": {
        "notice": "Ends the election, transitioning to the ended phase"
      },
      "getAllResults()": {
        "notice": "Retrieves results for all candidates"
      },
      "getResults(uint256)": {
        "notice": "Retrieves results for a specific candidate"
      },
      "getResultsByRange(uint256,uint256)": {
        "notice": "Retrieves results for a range of candidates"
      },
      "registerVoter(address)": {
        "notice": "Registers a voter (stub function for demonstration purposes)"
      },
      "setPhase(uint8)": {
        "notice": "Sets the current phase of the election"
      },
      "startElection()": {
        "notice": "Starts the election, transitioning to the voting phase"
      }
    },
    "notice": "Implements a secure and transparent voting system",
    "version": 1
  }
}