{
  "contractName": "VotingContract",
  "abi": [
    {
      "inputs": [],
      "stateMutability": "nonpayable",
      "type": "constructor"
    },
    {
      "anonymous": false,
      "inputs": [
        {
          "indexed": false,
          "internalType": "uint256",
          "name": "candidateId",
          "type": "uint256"
        },
        {
          "indexed": false,
          "internalType": "string",
          "name": "name",
          "type": "string"
        }
      ],
      "name": "CandidateAdded",
      "type": "event"
    },
    {
      "anonymous": false,
      "inputs": [],
      "name": "ElectionEnded",
      "type": "event"
    },
    {
      "anonymous": false,
      "inputs": [],
      "name": "ElectionStarted",
      "type": "event"
    },
    {
      "anonymous": false,
      "inputs": [
        {
          "indexed": false,
          "internalType": "address",
          "name": "voter",
          "type": "address"
        },
        {
          "indexed": false,
          "internalType": "uint256",
          "name": "candidateId",
          "type": "uint256"
        }
      ],
      "name": "VoteCasted",
      "type": "event"
    },
    {
      "anonymous": false,
      "inputs": [
        {
          "indexed": false,
          "internalType": "address",
          "name": "voter",
          "type": "address"
        }
      ],
      "name": "VoterRegistered",
      "type": "event"
    },
    {
      "anonymous": false,
      "inputs": [
        {
          "indexed": false,
          "internalType": "string",
          "name": "name",
          "type": "string"
        }
      ],
      "name": "WriteInApproved",
      "type": "event"
    },
    {
      "inputs": [
        {
          "internalType": "string",
          "name": "",
          "type": "string"
        }
      ],
      "name": "approvedWriteIns",
      "outputs": [
        {
          "internalType": "bool",
          "name": "",
          "type": "bool"
        }
      ],
      "stateMutability": "view",
      "type": "function"
    },
    {
      "inputs": [],
      "name": "candidateCount",
      "outputs": [
        {
          "internalType": "uint256",
          "name": "",
          "type": "uint256"
        }
      ],
      "stateMutability": "view",
      "type": "function"
    },
    {
      "inputs": [
        {
          "internalType": "uint256",
          "name": "",
          "type": "uint256"
        }
      ],
      "name": "candidates",
      "outputs": [
        {
          "internalType": "string",
          "name": "",
          "type": "string"
        }
      ],
      "stateMutability": "view",
      "type": "function"
    },
    {
      "inputs": [],
      "name": "electionOngoing",
      "outputs": [
        {
          "internalType": "bool",
          "name": "",
          "type": "bool"
        }
      ],
      "stateMutability": "view",
      "type": "function"
    },
    {
      "inputs": [
        {
          "internalType": "address",
          "name": "",
          "type": "address"
        }
      ],
      "name": "hasVoted",
      "outputs": [
        {
          "internalType": "bool",
          "name": "",
          "type": "bool"
        }
      ],
      "stateMutability": "view",
      "type": "function"
    },
    {
      "inputs": [],
      "name": "owner",
      "outputs": [
        {
          "internalType": "address",
          "name": "",
          "type": "address"
        }
      ],
      "stateMutability": "view",
      "type": "function"
    },
    {
      "inputs": [],
      "name": "phase",
      "outputs": [
        {
          "internalType": "enum VotingContract.ElectionPhase",
          "name": "",
          "type": "uint8"
        }
      ],
      "stateMutability": "view",
      "type": "function"
    },
    {
      "inputs": [
        {
          "internalType": "uint256",
          "name": "",
          "type": "uint256"
        }
      ],
      "name": "votes",
      "outputs": [
        {
          "internalType": "uint256",
          "name": "",
          "type": "uint256"
        }
      ],
      "stateMutability": "view",
      "type": "function"
    },
    {
      "inputs": [
        {
          "internalType": "address",
          "name": "_voter",
          "type": "address"
        }
      ],
      "name": "registerVoter",
      "outputs": [],
      "stateMutability": "nonpayable",
      "type": "function"
    },
    {
      "inputs": [
        {
          "internalType": "enum VotingContract.ElectionPhase",
          "name": "_phase",
          "type": "uint8"
        }
      ],
      "name": "setPhase",
      "outputs": [],
      "stateMutability": "nonpayable",
      "type": "function"
    },
    {
      "inputs": [
        {
          "internalType": "string",
          "name": "_name",
          "type": "string"
        }
      ],
      "name": "addCandidate",
      "outputs": [],
      "stateMutability": "nonpayable",
      "type": "function"
    },
    {
      "inputs": [
        {
          "internalType": "string",
          "name": "_name",
          "type": "string"
        }
      ],
      "name": "approveWriteIn",
      "outputs": [],
      "stateMutability": "nonpayable",
      "type": "function"
    },
    {
      "inputs": [],
      "name": "startElection",
      "outputs": [],
      "stateMutability": "nonpayable",
      "type": "function"
    },
    {
      "inputs": [
        {
          "internalType": "uint256",
          "name": "_candidateId",
          "type": "uint256"
        }
      ],
      "name": "castVote",
      "outputs": [],
      "stateMutability": "nonpayable",
      "type": "function"
    },
    {
      "inputs": [],
      "name": "endElection",
      "outputs": [],
      "stateMutability": "nonpayable",
      "type": "function"
    },
    {
      "inputs": [
        {
          "internalType": "uint256",
          "name": "_candidateId",
          "type": "uint256"
        }
      ],
      "name": "getResults",
      "outputs": [
        {
          "internalType": "uint256",
          "name": "",
          "type": "uint256"
        }
      ],
      "stateMutability": "view",
      "type": "function"
    },
    {
      "inputs": [],
      "name": "getAllResults",
      "outputs": [
        {
          "internalType": "string[]",
          "name": "",
          "type": "string[]"
        },
        {
          "internalType": "uint256[]",
          "name": "",
          "type": "uint256[]"
        }
      ],
      "stateMutability": "view",
      "type": "function"
    },
    {
      "inputs": [
        {
          "internalType": "uint256",
          "name": "start",
          "type": "uint256"
        },
        {
          "internalType": "uint256",
          "name": "end",
          "type": "uint256"
        }
      ],
      "name": "getResultsByRange",
      "outputs": [
        {
          "internalType": "string[]",
          "name": "",
          "type": "string[]"
        },
        {
          "internalType": "uint256[]",
          "name": "",
          "type": "uint256[]"
        }
      ],
      "stateMutability": "view",
      "type": "function"
    }
  ],
  "bytecode": "0x608060405234801562000010575f80fd5b50335f806101000a81548173ffffffffffffffffffffffffffffffffffffffff021916908373ffffffffffffffffffffffffffffffffffffffff1602179055505f600260016101000a81548160ff0219169083600381111562000078576200007762000083565b5b0217905550620000b0565b7f4e487b71000000000000000000000000000000000000000000000000000000005f52602160045260245ffd5b612ebc80620000be5f395ff3fe608060405234801561000f575f80fd5b5060043610610114575f3560e01c806376d9be08116100a0578063a9a981a31161006f578063a9a981a3146102cc578063b1c9fe6e146102ea578063c03afb5914610308578063f5bebbf214610324578063fd091d0e1461034057610114565b806376d9be081461024157806381a60c0d146102605780638da5cb5b14610290578063972b4192146102ae57610114565b80633eb76b9c116100e75780633eb76b9c146101c5578063462e91ec146101e157806359f78468146101fd5780635df813301461020757806362d73eb81461023757610114565b806309eef43e1461011857806333005055146101485780633477ee2e1461017957806338db6dd3146101a9575b5f80fd5b610132600480360381019061012d9190611f57565b610370565b60405161013f9190611f9c565b60405180910390f35b610162600480360381019061015d9190611fe8565b61038d565b604051610170929190612222565b60405180910390f35b610193600480360381019061018e9190612257565b610797565b6040516101a091906122ca565b60405180910390f35b6101c360048036038101906101be9190611f57565b610832565b005b6101df60048036038101906101da9190612257565b61086c565b005b6101fb60048036038101906101f69190612416565b610c04565b005b610205610ecd565b005b610221600480360381019061021c9190612257565b611191565b60405161022e919061246c565b60405180910390f35b61023f6111a6565b005b6102496114af565b604051610257929190612222565b60405180910390f35b61027a60048036038101906102759190612257565b611847565b604051610287919061246c565b60405180910390f35b610298611a77565b6040516102a59190612494565b60405180910390f35b6102b6611a9a565b6040516102c39190611f9c565b60405180910390f35b6102d4611aac565b6040516102e1919061246c565b60405180910390f35b6102f2611ab2565b6040516102ff9190612520565b60405180910390f35b610322600480360381019061031d919061255c565b611ac5565b005b61033e60048036038101906103399190612416565b611bf4565b005b61035a60048036038101906103559190612416565b611eb7565b6040516103679190611f9c565b60405180910390f35b6005602052805f5260405f205f915054906101000a900460ff1681565b6060806003600260038111156103a6576103a56124ad565b5b8160038111156103b9576103b86124ad565b5b03610438578060038111156103d1576103d06124ad565b5b600260019054906101000a900460ff1660038111156103f3576103f26124ad565b5b14610433576040517f08c379a000000000000000000000000000000000000000000000000000000000815260040161042a906125d1565b60405180910390fd5b610555565b6001600381111561044c5761044b6124ad565b5b81600381111561045f5761045e6124ad565b5b036104de57806003811115610477576104766124ad565b5b600260019054906101000a900460ff166003811115610499576104986124ad565b5b146104d9576040517f08c379a00000000000000000000000000000000000000000000000000000000081526004016104d09061265f565b60405180910390fd5b610554565b8060038111156104f1576104f06124ad565b5b600260019054906101000a900460ff166003811115610513576105126124ad565b5b14610553576040517f08c379a000000000000000000000000000000000000000000000000000000000815260040161054a906126c7565b60405180910390fd5b5b5b5f8511801561056657506001548411155b80156105725750838511155b6105b1576040517f08c379a00000000000000000000000000000000000000000000000000000000081526004016105a89061272f565b60405180910390fd5b5f600186866105c0919061277a565b6105ca91906127ad565b90505f8167ffffffffffffffff8111156105e7576105e66122f2565b5b60405190808252806020026020018201604052801561061a57816020015b60608152602001906001900390816106055790505b5090505f8267ffffffffffffffff811115610638576106376122f2565b5b6040519080825280602002602001820160405280156106665781602001602082028036833780820191505090505b5090505f8890505b8781116107855760035f8281526020019081526020015f2080546106919061280d565b80601f01602080910402602001604051908101604052809291908181526020018280546106bd9061280d565b80156107085780601f106106df57610100808354040283529160200191610708565b820191905f5260205f20905b8154815290600101906020018083116106eb57829003601f168201915b5050505050838a8361071a919061277a565b8151811061072b5761072a61283d565b5b602002602001018190525060065f8281526020019081526020015f2054828a83610755919061277a565b815181106107665761076561283d565b5b602002602001018181525050808061077d9061286a565b91505061066e565b50818195509550505050509250929050565b6003602052805f5260405f205f9150905080546107b39061280d565b80601f01602080910402602001604051908101604052809291908181526020018280546107df9061280d565b801561082a5780601f106108015761010080835404028352916020019161082a565b820191905f5260205f20905b81548152906001019060200180831161080d57829003601f168201915b505050505081565b7fb6be2187d059cc2a55fe29e0e503b566e1e0f8c8780096e185429350acffd3dd816040516108619190612494565b60405180910390a150565b6002806003811115610881576108806124ad565b5b816003811115610894576108936124ad565b5b03610913578060038111156108ac576108ab6124ad565b5b600260019054906101000a900460ff1660038111156108ce576108cd6124ad565b5b1461090e576040517f08c379a0000000000000000000000000000000000000000000000000000000008152600401610905906125d1565b60405180910390fd5b610a30565b60016003811115610927576109266124ad565b5b81600381111561093a576109396124ad565b5b036109b957806003811115610952576109516124ad565b5b600260019054906101000a900460ff166003811115610974576109736124ad565b5b146109b4576040517f08c379a00000000000000000000000000000000000000000000000000000000081526004016109ab9061265f565b60405180910390fd5b610a2f565b8060038111156109cc576109cb6124ad565b5b600260019054906101000a900460ff1660038111156109ee576109ed6124ad565b5b14610a2e576040517f08c379a0000000000000000000000000000000000000000000000000000000008152600401610a25906126c7565b60405180910390fd5b5b5b60055f3373ffffffffffffffffffffffffffffffffffffffff1673ffffffffffffffffffffffffffffffffffffffff1681526020019081526020015f205f9054906101000a900460ff1615610aba576040517f08c379a0000000000000000000000000000000000000000000000000000000008152600401610ab1906128fb565b60405180910390fd5b5f82118015610acb57506001548211155b80610b0d5750600460035f8481526020019081526020015f20604051610af191906129b5565b90815260200160405180910390205f9054906101000a900460ff165b610b4c576040517f08c379a0000000000000000000000000000000000000000000000000000000008152600401610b4390612a15565b60405180910390fd5b60065f8381526020019081526020015f205f815480929190610b6d9061286a565b9190505550600160055f3373ffffffffffffffffffffffffffffffffffffffff1673ffffffffffffffffffffffffffffffffffffffff1681526020019081526020015f205f6101000a81548160ff0219169083151502179055507fd0e6c39f2e086dc49f1524b47725526a56945cd1ff661f37976f1725a1e569863383604051610bf8929190612a33565b60405180910390a15050565b5f8054906101000a900473ffffffffffffffffffffffffffffffffffffffff1673ffffffffffffffffffffffffffffffffffffffff163373ffffffffffffffffffffffffffffffffffffffff1614610c91576040517f08c379a0000000000000000000000000000000000000000000000000000000008152600401610c8890612aa4565b60405180910390fd5b600160026003811115610ca757610ca66124ad565b5b816003811115610cba57610cb96124ad565b5b03610d3957806003811115610cd257610cd16124ad565b5b600260019054906101000a900460ff166003811115610cf457610cf36124ad565b5b14610d34576040517f08c379a0000000000000000000000000000000000000000000000000000000008152600401610d2b906125d1565b60405180910390fd5b610e56565b60016003811115610d4d57610d4c6124ad565b5b816003811115610d6057610d5f6124ad565b5b03610ddf57806003811115610d7857610d776124ad565b5b600260019054906101000a900460ff166003811115610d9a57610d996124ad565b5b14610dda576040517f08c379a0000000000000000000000000000000000000000000000000000000008152600401610dd19061265f565b60405180910390fd5b610e55565b806003811115610df257610df16124ad565b5b600260019054906101000a900460ff166003811115610e1457610e136124ad565b5b14610e54576040517f08c379a0000000000000000000000000000000000000000000000000000000008152600401610e4b906126c7565b60405180910390fd5b5b5b60015f815480929190610e689061286a565b91905055508160035f60015481526020019081526020015f209081610e8d9190612c4d565b507fe83b2a43e7e82d975c8a0a6d2f045153c869e111136a34d1889ab7b598e396a360015483604051610ec1929190612d1c565b60405180910390a15050565b5f8054906101000a900473ffffffffffffffffffffffffffffffffffffffff1673ffffffffffffffffffffffffffffffffffffffff163373ffffffffffffffffffffffffffffffffffffffff1614610f5a576040517f08c379a0000000000000000000000000000000000000000000000000000000008152600401610f5190612aa4565b60405180910390fd5b6002806003811115610f6f57610f6e6124ad565b5b816003811115610f8257610f816124ad565b5b0361100157806003811115610f9a57610f996124ad565b5b600260019054906101000a900460ff166003811115610fbc57610fbb6124ad565b5b14610ffc576040517f08c379a0000000000000000000000000000000000000000000000000000000008152600401610ff3906125d1565b60405180910390fd5b61111e565b60016003811115611015576110146124ad565b5b816003811115611028576110276124ad565b5b036110a7578060038111156110405761103f6124ad565b5b600260019054906101000a900460ff166003811115611062576110616124ad565b5b146110a2576040517f08c379a00000000000000000000000000000000000000000000000000000000081526004016110999061265f565b60405180910390fd5b61111d565b8060038111156110ba576110b96124ad565b5b600260019054906101000a900460ff1660038111156110dc576110db6124ad565b5b1461111c576040517f08c379a0000000000000000000000000000000000000000000000000000000008152600401611113906126c7565b60405180910390fd5b5b5b6003600260016101000a81548160ff02191690836003811115611144576111436124ad565b5b02179055505f60025f6101000a81548160ff0219169083151502179055507f66ec723071e4bb646f7b35d31bc2dee8510979bd8c180edd0690d4f5e802f1e460405160405180910390a150565b6006602052805f5260405f205f915090505481565b5f8054906101000a900473ffffffffffffffffffffffffffffffffffffffff1673ffffffffffffffffffffffffffffffffffffffff163373ffffffffffffffffffffffffffffffffffffffff1614611233576040517f08c379a000000000000000000000000000000000000000000000000000000000815260040161122a90612aa4565b60405180910390fd5b600160026003811115611249576112486124ad565b5b81600381111561125c5761125b6124ad565b5b036112db57806003811115611274576112736124ad565b5b600260019054906101000a900460ff166003811115611296576112956124ad565b5b146112d6576040517f08c379a00000000000000000000000000000000000000000000000000000000081526004016112cd906125d1565b60405180910390fd5b6113f8565b600160038111156112ef576112ee6124ad565b5b816003811115611302576113016124ad565b5b036113815780600381111561131a576113196124ad565b5b600260019054906101000a900460ff16600381111561133c5761133b6124ad565b5b1461137c576040517f08c379a00000000000000000000000000000000000000000000000000000000081526004016113739061265f565b60405180910390fd5b6113f7565b806003811115611394576113936124ad565b5b600260019054906101000a900460ff1660038111156113b6576113b56124ad565b5b146113f6576040517f08c379a00000000000000000000000000000000000000000000000000000000081526004016113ed906126c7565b60405180910390fd5b5b5b5f6001541161143c576040517f08c379a000000000000000000000000000000000000000000000000000000000815260040161143390612dba565b60405180910390fd5b60028060016101000a81548160ff02191690836003811115611461576114606124ad565b5b0217905550600160025f6101000a81548160ff0219169083151502179055507fc475c26aa25ed8e85a7faa790e5f63b5d7ee1025f12821f4c9bfddd36ab4d11260405160405180910390a150565b6060806003600260038111156114c8576114c76124ad565b5b8160038111156114db576114da6124ad565b5b0361155a578060038111156114f3576114f26124ad565b5b600260019054906101000a900460ff166003811115611515576115146124ad565b5b14611555576040517f08c379a000000000000000000000000000000000000000000000000000000000815260040161154c906125d1565b60405180910390fd5b611677565b6001600381111561156e5761156d6124ad565b5b816003811115611581576115806124ad565b5b0361160057806003811115611599576115986124ad565b5b600260019054906101000a900460ff1660038111156115bb576115ba6124ad565b5b146115fb576040517f08c379a00000000000000000000000000000000000000000000000000000000081526004016115f29061265f565b60405180910390fd5b611676565b806003811115611613576116126124ad565b5b600260019054906101000a900460ff166003811115611635576116346124ad565b5b14611675576040517f08c379a000000000000000000000000000000000000000000000000000000000815260040161166c906126c7565b60405180910390fd5b5b5b5f60015467ffffffffffffffff811115611694576116936122f2565b5b6040519080825280602002602001820160405280156116c757816020015b60608152602001906001900390816116b25790505b5090505f60015467ffffffffffffffff8111156116e7576116e66122f2565b5b6040519080825280602002602001820160405280156117155781602001602082028036833780820191505090505b5090505f600190505b60015481116118395760035f8281526020019081526020015f2080546117439061280d565b80601f016020809104026020016040519081016040528092919081815260200182805461176f9061280d565b80156117ba5780601f10611791576101008083540402835291602001916117ba565b820191905f5260205f20905b81548152906001019060200180831161179d57829003601f168201915b5050505050836001836117cd919061277a565b815181106117de576117dd61283d565b5b602002602001018190525060065f8281526020019081526020015f205482600183611809919061277a565b8151811061181a5761181961283d565b5b60200260200101818152505080806118319061286a565b91505061171e565b508181945094505050509091565b5f60036002600381111561185e5761185d6124ad565b5b816003811115611871576118706124ad565b5b036118f057806003811115611889576118886124ad565b5b600260019054906101000a900460ff1660038111156118ab576118aa6124ad565b5b146118eb576040517f08c379a00000000000000000000000000000000000000000000000000000000081526004016118e2906125d1565b60405180910390fd5b611a0d565b60016003811115611904576119036124ad565b5b816003811115611917576119166124ad565b5b036119965780600381111561192f5761192e6124ad565b5b600260019054906101000a900460ff166003811115611951576119506124ad565b5b14611991576040517f08c379a00000000000000000000000000000000000000000000000000000000081526004016119889061265f565b60405180910390fd5b611a0c565b8060038111156119a9576119a86124ad565b5b600260019054906101000a900460ff1660038111156119cb576119ca6124ad565b5b14611a0b576040517f08c379a0000000000000000000000000000000000000000000000000000000008152600401611a02906126c7565b60405180910390fd5b5b5b5f83118015611a1e57506001548311155b611a5d576040517f08c379a0000000000000000000000000000000000000000000000000000000008152600401611a5490612a15565b60405180910390fd5b60065f8481526020019081526020015f2054915050919050565b5f8054906101000a900473ffffffffffffffffffffffffffffffffffffffff1681565b60025f9054906101000a900460ff1681565b60015481565b600260019054906101000a900460ff1681565b5f8054906101000a900473ffffffffffffffffffffffffffffffffffffffff1673ffffffffffffffffffffffffffffffffffffffff163373ffffffffffffffffffffffffffffffffffffffff1614611b52576040517f08c379a0000000000000000000000000000000000000000000000000000000008152600401611b4990612aa4565b60405180910390fd5b600380811115611b6557611b646124ad565b5b600260019054906101000a900460ff166003811115611b8757611b866124ad565b5b03611bc7576040517f08c379a0000000000000000000000000000000000000000000000000000000008152600401611bbe90612e22565b60405180910390fd5b80600260016101000a81548160ff02191690836003811115611bec57611beb6124ad565b5b021790555050565b5f8054906101000a900473ffffffffffffffffffffffffffffffffffffffff1673ffffffffffffffffffffffffffffffffffffffff163373ffffffffffffffffffffffffffffffffffffffff1614611c81576040517f08c379a0000000000000000000000000000000000000000000000000000000008152600401611c7890612aa4565b60405180910390fd5b600160026003811115611c9757611c966124ad565b5b816003811115611caa57611ca96124ad565b5b03611d2957806003811115611cc257611cc16124ad565b5b600260019054906101000a900460ff166003811115611ce457611ce36124ad565b5b14611d24576040517f08c379a0000000000000000000000000000000000000000000000000000000008152600401611d1b906125d1565b60405180910390fd5b611e46565b60016003811115611d3d57611d3c6124ad565b5b816003811115611d5057611d4f6124ad565b5b03611dcf57806003811115611d6857611d676124ad565b5b600260019054906101000a900460ff166003811115611d8a57611d896124ad565b5b14611dca576040517f08c379a0000000000000000000000000000000000000000000000000000000008152600401611dc19061265f565b60405180910390fd5b611e45565b806003811115611de257611de16124ad565b5b600260019054906101000a900460ff166003811115611e0457611e036124ad565b5b14611e44576040517f08c379a0000000000000000000000000000000000000000000000000000000008152600401611e3b906126c7565b60405180910390fd5b5b5b6001600483604051611e589190612e70565b90815260200160405180910390205f6101000a81548160ff0219169083151502179055507fef3a93bd3eddf25ebe7f30119c8b78c2b8e47c9a0b3531af4d5658b9171a386f82604051611eab91906122ca565b60405180910390a15050565b6004818051602081018201805184825260208301602085012081835280955050505050505f915054906101000a900460ff1681565b5f604051905090565b5f80fd5b5f80fd5b5f73ffffffffffffffffffffffffffffffffffffffff82169050919050565b5f611f2682611efd565b9050919050565b611f3681611f1c565b8114611f40575f80fd5b50565b5f81359050611f5181611f2d565b92915050565b5f60208284031215611f6c57611f6b611ef5565b5b5f611f7984828501611f43565b91505092915050565b5f8115159050919050565b611f9681611f82565b82525050565b5f602082019050611faf5f830184611f8d565b92915050565b5f819050919050565b611fc781611fb5565b8114611fd1575f80fd5b50565b5f81359050611fe281611fbe565b92915050565b5f8060408385031215611ffe57611ffd611ef5565b5b5f61200b85828601611fd4565b925050602061201c85828601611fd4565b9150509250929050565b5f81519050919050565b5f82825260208201905092915050565b5f819050602082019050919050565b5f81519050919050565b5f82825260208201905092915050565b5f5b8381101561208657808201518184015260208101905061206b565b5f8484015250505050565b5f601f19601f8301169050919050565b5f6120ab8261204f565b6120b58185612059565b93506120c5818560208601612069565b6120ce81612091565b840191505092915050565b5f6120e483836120a1565b905092915050565b5f602082019050919050565b5f61210282612026565b61210c8185612030565b93508360208202850161211e85612040565b805f5b85811015612159578484038952815161213a85826120d9565b9450612145836120ec565b925060208a01995050600181019050612121565b50829750879550505050505092915050565b5f81519050919050565b5f82825260208201905092915050565b5f819050602082019050919050565b61219d81611fb5565b82525050565b5f6121ae8383612194565b60208301905092915050565b5f602082019050919050565b5f6121d08261216b565b6121da8185612175565b93506121e583612185565b805f5b838110156122155781516121fc88826121a3565b9750612207836121ba565b9250506001810190506121e8565b5085935050505092915050565b5f6040820190508181035f83015261223a81856120f8565b9050818103602083015261224e81846121c6565b90509392505050565b5f6020828403121561226c5761226b611ef5565b5b5f61227984828501611fd4565b91505092915050565b5f82825260208201905092915050565b5f61229c8261204f565b6122a68185612282565b93506122b6818560208601612069565b6122bf81612091565b840191505092915050565b5f6020820190508181035f8301526122e28184612292565b905092915050565b5f80fd5b5f80fd5b7f4e487b71000000000000000000000000000000000000000000000000000000005f52604160045260245ffd5b61232882612091565b810181811067ffffffffffffffff82111715612347576123466122f2565b5b80604052505050565b5f612359611eec565b9050612365828261231f565b919050565b5f67ffffffffffffffff821115612384576123836122f2565b5b61238d82612091565b9050602081019050919050565b828183375f83830152505050565b5f6123ba6123b58461236a565b612350565b9050828152602081018484840111156123d6576123d56122ee565b5b6123e184828561239a565b509392505050565b5f82601f8301126123fd576123fc6122ea565b5b813561240d8482602086016123a8565b91505092915050565b5f6020828403121561242b5761242a611ef5565b5b5f82013567ffffffffffffffff81111561244857612447611ef9565b5b612454848285016123e9565b91505092915050565b61246681611fb5565b82525050565b5f60208201905061247f5f83018461245d565b92915050565b61248e81611f1c565b82525050565b5f6020820190506124a75f830184612485565b92915050565b7f4e487b71000000000000000000000000000000000000000000000000000000005f52602160045260245ffd5b600481106124eb576124ea6124ad565b5b50565b5f8190506124fb826124da565b919050565b5f61250a826124ee565b9050919050565b61251a81612500565b82525050565b5f6020820190506125335f830184612511565b92915050565b60048110612545575f80fd5b50565b5f8135905061255681612539565b92915050565b5f6020828403121561257157612570611ef5565b5b5f61257e84828501612548565b91505092915050565b7f456c656374696f6e206973206e6f74206f6e676f696e670000000000000000005f82015250565b5f6125bb601783612282565b91506125c682612587565b602082019050919050565b5f6020820190508181035f8301526125e8816125af565b9050919050565b7f43616e6e6f74206164642063616e6469646174657320647572696e6720616e205f8201527f656c656374696f6e000000000000000000000000000000000000000000000000602082015250565b5f612649602883612282565b9150612654826125ef565b604082019050919050565b5f6020820190508181035f8301526126768161263d565b9050919050565b7f496e76616c696420706861736520666f72207468697320616374696f6e0000005f82015250565b5f6126b1601d83612282565b91506126bc8261267d565b602082019050919050565b5f6020820190508181035f8301526126de816126a5565b9050919050565b7f496e76616c69642072616e6765000000000000000000000000000000000000005f82015250565b5f612719600d83612282565b9150612724826126e5565b602082019050919050565b5f6020820190508181035f8301526127468161270d565b9050919050565b7f4e487b71000000000000000000000000000000000000000000000000000000005f52601160045260245ffd5b5f61278482611fb5565b915061278f83611fb5565b92508282039050818111156127a7576127a661274d565b5b92915050565b5f6127b782611fb5565b91506127c283611fb5565b92508282019050808211156127da576127d961274d565b5b92915050565b7f4e487b71000000000000000000000000000000000000000000000000000000005f52602260045260245ffd5b5f600282049050600182168061282457607f821691505b602082108103612837576128366127e0565b5b50919050565b7f4e487b71000000000000000000000000000000000000000000000000000000005f52603260045260245ffd5b5f61287482611fb5565b91507fffffffffffffffffffffffffffffffffffffffffffffffffffffffffffffffff82036128a6576128a561274d565b5b600182019050919050565b7f596f75206861766520616c726561647920766f746564000000000000000000005f82015250565b5f6128e5601683612282565b91506128f0826128b1565b602082019050919050565b5f6020820190508181035f830152612912816128d9565b9050919050565b5f81905092915050565b5f819050815f5260205f209050919050565b5f81546129418161280d565b61294b8186612919565b9450600182165f8114612965576001811461297a576129ac565b60ff19831686528115158202860193506129ac565b61298385612923565b5f5b838110156129a457815481890152600182019150602081019050612985565b838801955050505b50505092915050565b5f6129c08284612935565b915081905092915050565b7f496e76616c69642063616e6469646174652049440000000000000000000000005f82015250565b5f6129ff601483612282565b9150612a0a826129cb565b602082019050919050565b5f6020820190508181035f830152612a2c816129f3565b9050919050565b5f604082019050612a465f830185612485565b612a53602083018461245d565b9392505050565b7f596f7520617265206e6f7420746865206f776e657200000000000000000000005f82015250565b5f612a8e601583612282565b9150612a9982612a5a565b602082019050919050565b5f6020820190508181035f830152612abb81612a82565b9050919050565b5f6020601f8301049050919050565b5f82821b905092915050565b5f60088302612b0c7fffffffffffffffffffffffffffffffffffffffffffffffffffffffffffffffff82612ad1565b612b168683612ad1565b95508019841693508086168417925050509392505050565b5f819050919050565b5f612b51612b4c612b4784611fb5565b612b2e565b611fb5565b9050919050565b5f819050919050565b612b6a83612b37565b612b7e612b7682612b58565b848454612add565b825550505050565b5f90565b612b92612b86565b612b9d818484612b61565b505050565b5b81811015612bc057612bb55f82612b8a565b600181019050612ba3565b5050565b601f821115612c0557612bd681612923565b612bdf84612ac2565b81016020851015612bee578190505b612c02612bfa85612ac2565b830182612ba2565b50505b505050565b5f82821c905092915050565b5f612c255f1984600802612c0a565b1980831691505092915050565b5f612c3d8383612c16565b9150826002028217905092915050565b612c568261204f565b67ffffffffffffffff811115612c6f57612c6e6122f2565b5b612c79825461280d565b612c84828285612bc4565b5f60209050601f831160018114612cb5575f8415612ca3578287015190505b612cad8582612c32565b865550612d14565b601f198416612cc386612923565b5f5b82811015612cea57848901518255600182019150602085019450602081019050612cc5565b86831015612d075784890151612d03601f891682612c16565b8355505b6001600288020188555050505b505050505050565b5f604082019050612d2f5f83018561245d565b8181036020830152612d418184612292565b90509392505050565b7f4e6f2063616e6469646174657320746f2073746172742074686520656c6563745f8201527f696f6e0000000000000000000000000000000000000000000000000000000000602082015250565b5f612da4602383612282565b9150612daf82612d4a565b604082019050919050565b5f6020820190508181035f830152612dd181612d98565b9050919050565b7f456c656374696f6e2068617320656e64656400000000000000000000000000005f82015250565b5f612e0c601283612282565b9150612e1782612dd8565b602082019050919050565b5f6020820190508181035f830152612e3981612e00565b9050919050565b5f612e4a8261204f565b612e548185612919565b9350612e64818560208601612069565b80840191505092915050565b5f612e7b8284612e40565b91508190509291505056fea2646970667358221220b9fb3408d5a85484b48566d74c38c5898c53030ac7e010f1538e046f00efb32a64736f6c63430008150033",
  "immutableReferences": {},
  "source": "// SPDX-License-Identifier: MIT\r\npragma solidity ^0.8.0;\r\n\r\nimport \"./IVotingSystem.sol\";\r\n\r\n/// @title Blockchain Voting System\r\n/// @notice Implements a secure and transparent voting system\r\ncontract VotingContract is IVotingSystem {\r\n    // State variables\r\n    address public owner; // Address of the contract owner\r\n    uint public candidateCount; // Tracks the total number of candidates\r\n    bool public electionOngoing; // Indicates if the election is currently active\r\n\r\n    /// @notice Defines the phases of an election\r\n    /// @dev Ensures the election progresses in a structured way\r\n    enum ElectionPhase { NotStarted, Registration, Voting, Ended }\r\n    ElectionPhase public phase; // Current phase of the election\r\n\r\n    mapping(uint => string) public candidates; // Maps candidate IDs to their names\r\n    mapping(string => bool) public approvedWriteIns; // Tracks approved write-in candidates\r\n    mapping(address => bool) public hasVoted; // Tracks whether an address has already voted\r\n    mapping(uint => uint) public votes; // Tracks votes for each candidate by ID\r\n\r\n    /// @notice Initializes the contract and sets the owner\r\n    constructor() {\r\n        owner = msg.sender;\r\n        phase = ElectionPhase.NotStarted;\r\n    }\r\n\r\n    /// @notice Restricts function access to the owner\r\n    modifier onlyOwner() {\r\n        require(msg.sender == owner, \"You are not the owner\");\r\n        _;\r\n    }\r\n\r\n    /// @notice Restricts functions to specific election phases\r\n    /// @param _phase The required phase for the function to execute\r\n    modifier inPhase(ElectionPhase _phase) {\r\n        if (_phase == ElectionPhase.Voting) {\r\n            require(phase == _phase, \"Election is not ongoing\");\r\n        } else if (_phase == ElectionPhase.Registration) {\r\n            require(phase == _phase, \"Cannot add candidates during an election\");\r\n        } else {\r\n            require(phase == _phase, \"Invalid phase for this action\");\r\n        }\r\n        _;\r\n    }\r\n\r\n    /// @notice Registers a voter (stub function for demonstration purposes)\r\n    /// @param _voter Address of the voter\r\n    function registerVoter(address _voter) external override {\r\n        // For demonstration purposes, no implementation\r\n        emit VoterRegistered(_voter);\r\n    }\r\n\r\n    /// @notice Sets the current phase of the election\r\n    /// @param _phase The phase to transition to\r\n    function setPhase(ElectionPhase _phase) external onlyOwner {\r\n        require(phase != ElectionPhase.Ended, \"Election has ended\");\r\n        phase = _phase;\r\n    }\r\n\r\n    /// @notice Adds a new candidate during the registration phase\r\n    /// @param _name The name of the candidate\r\n    function addCandidate(string memory _name) external onlyOwner inPhase(ElectionPhase.Registration) {\r\n        candidateCount++;\r\n        candidates[candidateCount] = _name;\r\n        emit CandidateAdded(candidateCount, _name);\r\n    }\r\n\r\n    /// @notice Approves a write-in candidate during the registration phase\r\n    /// @param _name The name of the write-in candidate\r\n    function approveWriteIn(string memory _name) external onlyOwner inPhase(ElectionPhase.Registration) {\r\n        approvedWriteIns[_name] = true;\r\n        emit WriteInApproved(_name);\r\n    }\r\n\r\n    /// @notice Starts the election, transitioning to the voting phase\r\n    function startElection() external onlyOwner inPhase(ElectionPhase.Registration) {\r\n        require(candidateCount > 0, \"No candidates to start the election\");\r\n        phase = ElectionPhase.Voting;\r\n        electionOngoing = true;\r\n        emit ElectionStarted();\r\n    }\r\n\r\n    /// @notice Allows a voter to cast their vote\r\n    /// @param _candidateId The ID of the candidate to vote for\r\n    function castVote(uint _candidateId) external inPhase(ElectionPhase.Voting) {\r\n        require(!hasVoted[msg.sender], \"You have already voted\");\r\n        require(\r\n            (_candidateId > 0 && _candidateId <= candidateCount) ||\r\n            approvedWriteIns[candidates[_candidateId]],\r\n            \"Invalid candidate ID\"\r\n        );\r\n\r\n        votes[_candidateId]++;\r\n        hasVoted[msg.sender] = true;\r\n        emit VoteCasted(msg.sender, _candidateId);\r\n    }\r\n\r\n    /// @notice Ends the election, transitioning to the ended phase\r\n    function endElection() external onlyOwner inPhase(ElectionPhase.Voting) {\r\n        phase = ElectionPhase.Ended;\r\n        electionOngoing = false;\r\n        emit ElectionEnded();\r\n    }\r\n\r\n    /// @notice Retrieves results for a specific candidate\r\n    /// @param _candidateId The ID of the candidate\r\n    /// @return The number of votes for the candidate\r\n    function getResults(uint _candidateId) external view inPhase(ElectionPhase.Ended) returns (uint) {\r\n        require(_candidateId > 0 && _candidateId <= candidateCount, \"Invalid candidate ID\");\r\n        return votes[_candidateId];\r\n    }\r\n\r\n    /// @notice Retrieves results for all candidates\r\n    /// @return Arrays containing candidate names and their respective vote counts\r\n    function getAllResults() external view inPhase(ElectionPhase.Ended) returns (string[] memory, uint[] memory) {\r\n        string[] memory candidateNames = new string[](candidateCount);\r\n        uint[] memory candidateVotes = new uint[](candidateCount);\r\n\r\n        for (uint i = 1; i <= candidateCount; i++) {\r\n            candidateNames[i - 1] = candidates[i];\r\n            candidateVotes[i - 1] = votes[i];\r\n        }\r\n\r\n        return (candidateNames, candidateVotes);\r\n    }\r\n\r\n    /// @notice Retrieves results for a range of candidates\r\n    /// @param start The starting candidate ID (inclusive)\r\n    /// @param end The ending candidate ID (inclusive)\r\n    /// @return Arrays containing candidate names and their respective vote counts\r\n    function getResultsByRange(uint start, uint end) external view inPhase(ElectionPhase.Ended) returns (string[] memory, uint[] memory) {\r\n        require(start > 0 && end <= candidateCount && start <= end, \"Invalid range\");\r\n        uint rangeSize = end - start + 1;\r\n\r\n        string[] memory candidateNames = new string[](rangeSize);\r\n        uint[] memory candidateVotes = new uint[](rangeSize);\r\n\r\n        for (uint i = start; i <= end; i++) {\r\n            candidateNames[i - start] = candidates[i];\r\n            candidateVotes[i - start] = votes[i];\r\n        }\r\n\r\n        return (candidateNames, candidateVotes);\r\n    }\r\n}\r\n",
  "sourcePath": "C:\\Users\\pbeau\\Blockchain\\blockchain-voting-system\\contracts\\VotingContract.sol",
  "compiler": {
    "name": "solc",
    "version": "0.8.21+commit.d9974bed.Emscripten.clang"
  },
  "schemaVersion": "3.4.16",
  "updatedAt": "2024-12-10T02:08:55.873Z",
  "devdoc": {
    "events": {
      "CandidateAdded(uint256,string)": {
        "params": {
          "candidateId": "ID of the candidate added",
          "name": "Name of the candidate"
        }
      },
      "VoteCasted(address,uint256)": {
        "params": {
          "candidateId": "ID of the candidate voted for",
          "voter": "Address of the voter"
        }
      },
      "VoterRegistered(address)": {
        "params": {
          "voter": "Address of the voter"
        }
      },
      "WriteInApproved(string)": {
        "params": {
          "name": "Name of the approved write-in candidate"
        }
      }
    },
    "kind": "dev",
    "methods": {
      "addCandidate(string)": {
        "params": {
          "_name": "The name of the candidate"
        }
      },
      "approveWriteIn(string)": {
        "params": {
          "_name": "The name of the write-in candidate"
        }
      },
      "castVote(uint256)": {
        "params": {
          "_candidateId": "The ID of the candidate to vote for"
        }
      },
      "getAllResults()": {
        "returns": {
          "_0": "Arrays containing candidate names and their respective vote counts"
        }
      },
      "getResults(uint256)": {
        "params": {
          "_candidateId": "The ID of the candidate"
        },
        "returns": {
          "_0": "The number of votes for the candidate"
        }
      },
      "getResultsByRange(uint256,uint256)": {
        "params": {
          "end": "The ending candidate ID (inclusive)",
          "start": "The starting candidate ID (inclusive)"
        },
        "returns": {
          "_0": "Arrays containing candidate names and their respective vote counts"
        }
      },
      "registerVoter(address)": {
        "params": {
          "_voter": "Address of the voter"
        }
      },
      "setPhase(uint8)": {
        "params": {
          "_phase": "The phase to transition to"
        }
      }
    },
    "title": "Blockchain Voting System",
    "version": 1
  },
  "userdoc": {
    "events": {
      "CandidateAdded(uint256,string)": {
        "notice": "Emitted when a candidate is added"
      },
      "ElectionEnded()": {
        "notice": "Emitted when the election ends"
      },
      "ElectionStarted()": {
        "notice": "Emitted when the election starts"
      },
      "VoteCasted(address,uint256)": {
        "notice": "Emitted when a vote is cast"
      },
      "VoterRegistered(address)": {
        "notice": "Emitted when a voter registers"
      },
      "WriteInApproved(string)": {
        "notice": "Emitted when a write-in candidate is approved"
      }
    },
    "kind": "user",
    "methods": {
      "addCandidate(string)": {
        "notice": "Adds a new candidate during the registration phase"
      },
      "approveWriteIn(string)": {
        "notice": "Approves a write-in candidate during the registration phase"
      },
      "castVote(uint256)": {
        "notice": "Allows a voter to cast their vote"
      },
      "constructor": {
        "notice": "Initializes the contract and sets the owner"
      },
      "endElection()": {
        "notice": "Ends the election, transitioning to the ended phase"
      },
      "getAllResults()": {
        "notice": "Retrieves results for all candidates"
      },
      "getResults(uint256)": {
        "notice": "Retrieves results for a specific candidate"
      },
      "getResultsByRange(uint256,uint256)": {
        "notice": "Retrieves results for a range of candidates"
      },
      "registerVoter(address)": {
        "notice": "Registers a voter (stub function for demonstration purposes)"
      },
      "setPhase(uint8)": {
        "notice": "Sets the current phase of the election"
      },
      "startElection()": {
        "notice": "Starts the election, transitioning to the voting phase"
      }
    },
    "notice": "Implements a secure and transparent voting system",
    "version": 1
  }
}