{
  "contractName": "VotingContract",
  "abi": [
    {
      "inputs": [],
      "stateMutability": "nonpayable",
      "type": "constructor"
    },
    {
      "anonymous": false,
      "inputs": [
        {
          "indexed": false,
          "internalType": "uint256",
          "name": "candidateId",
          "type": "uint256"
        },
        {
          "indexed": false,
          "internalType": "string",
          "name": "name",
          "type": "string"
        }
      ],
      "name": "CandidateAdded",
      "type": "event"
    },
    {
      "anonymous": false,
      "inputs": [],
      "name": "ElectionEnded",
      "type": "event"
    },
    {
      "anonymous": false,
      "inputs": [],
      "name": "ElectionStarted",
      "type": "event"
    },
    {
      "anonymous": false,
      "inputs": [
        {
          "indexed": false,
          "internalType": "address",
          "name": "voter",
          "type": "address"
        },
        {
          "indexed": false,
          "internalType": "uint256",
          "name": "candidateId",
          "type": "uint256"
        }
      ],
      "name": "VoteCasted",
      "type": "event"
    },
    {
      "anonymous": false,
      "inputs": [
        {
          "indexed": false,
          "internalType": "address",
          "name": "voter",
          "type": "address"
        }
      ],
      "name": "VoterRegistered",
      "type": "event"
    },
    {
      "anonymous": false,
      "inputs": [
        {
          "indexed": false,
          "internalType": "string",
          "name": "name",
          "type": "string"
        }
      ],
      "name": "WriteInApproved",
      "type": "event"
    },
    {
      "inputs": [
        {
          "internalType": "bytes32",
          "name": "",
          "type": "bytes32"
        }
      ],
      "name": "approvedWriteIns",
      "outputs": [
        {
          "internalType": "bool",
          "name": "",
          "type": "bool"
        }
      ],
      "stateMutability": "view",
      "type": "function",
      "constant": true
    },
    {
      "inputs": [],
      "name": "candidateCount",
      "outputs": [
        {
          "internalType": "uint256",
          "name": "",
          "type": "uint256"
        }
      ],
      "stateMutability": "view",
      "type": "function",
      "constant": true
    },
    {
      "inputs": [
        {
          "internalType": "uint256",
          "name": "",
          "type": "uint256"
        }
      ],
      "name": "candidates",
      "outputs": [
        {
          "internalType": "string",
          "name": "",
          "type": "string"
        }
      ],
      "stateMutability": "view",
      "type": "function",
      "constant": true
    },
    {
      "inputs": [],
      "name": "electionOngoing",
      "outputs": [
        {
          "internalType": "bool",
          "name": "",
          "type": "bool"
        }
      ],
      "stateMutability": "view",
      "type": "function",
      "constant": true
    },
    {
      "inputs": [
        {
          "internalType": "address",
          "name": "",
          "type": "address"
        }
      ],
      "name": "hasVoted",
      "outputs": [
        {
          "internalType": "bool",
          "name": "",
          "type": "bool"
        }
      ],
      "stateMutability": "view",
      "type": "function",
      "constant": true
    },
    {
      "inputs": [
        {
          "internalType": "address",
          "name": "",
          "type": "address"
        }
      ],
      "name": "isRegistered",
      "outputs": [
        {
          "internalType": "bool",
          "name": "",
          "type": "bool"
        }
      ],
      "stateMutability": "view",
      "type": "function",
      "constant": true
    },
    {
      "inputs": [],
      "name": "owner",
      "outputs": [
        {
          "internalType": "address",
          "name": "",
          "type": "address"
        }
      ],
      "stateMutability": "view",
      "type": "function",
      "constant": true
    },
    {
      "inputs": [],
      "name": "phase",
      "outputs": [
        {
          "internalType": "enum VotingContract.ElectionPhase",
          "name": "",
          "type": "uint8"
        }
      ],
      "stateMutability": "view",
      "type": "function",
      "constant": true
    },
    {
      "inputs": [
        {
          "internalType": "uint256",
          "name": "",
          "type": "uint256"
        }
      ],
      "name": "votes",
      "outputs": [
        {
          "internalType": "uint256",
          "name": "",
          "type": "uint256"
        }
      ],
      "stateMutability": "view",
      "type": "function",
      "constant": true
    },
    {
      "inputs": [
        {
          "internalType": "address",
          "name": "_voter",
          "type": "address"
        }
      ],
      "name": "registerVoter",
      "outputs": [],
      "stateMutability": "nonpayable",
      "type": "function"
    },
    {
      "inputs": [
        {
          "internalType": "enum VotingContract.ElectionPhase",
          "name": "_phase",
          "type": "uint8"
        }
      ],
      "name": "setPhase",
      "outputs": [],
      "stateMutability": "nonpayable",
      "type": "function"
    },
    {
      "inputs": [
        {
          "internalType": "string",
          "name": "_name",
          "type": "string"
        }
      ],
      "name": "addCandidate",
      "outputs": [],
      "stateMutability": "nonpayable",
      "type": "function"
    },
    {
      "inputs": [
        {
          "internalType": "string",
          "name": "_name",
          "type": "string"
        }
      ],
      "name": "approveWriteIn",
      "outputs": [],
      "stateMutability": "nonpayable",
      "type": "function"
    },
    {
      "inputs": [],
      "name": "startElection",
      "outputs": [],
      "stateMutability": "nonpayable",
      "type": "function"
    },
    {
      "inputs": [
        {
          "internalType": "uint256",
          "name": "_candidateId",
          "type": "uint256"
        }
      ],
      "name": "castVote",
      "outputs": [],
      "stateMutability": "nonpayable",
      "type": "function"
    },
    {
      "inputs": [],
      "name": "endElection",
      "outputs": [],
      "stateMutability": "nonpayable",
      "type": "function"
    },
    {
      "inputs": [
        {
          "internalType": "uint256",
          "name": "_candidateId",
          "type": "uint256"
        }
      ],
      "name": "getResults",
      "outputs": [
        {
          "internalType": "uint256",
          "name": "",
          "type": "uint256"
        }
      ],
      "stateMutability": "view",
      "type": "function",
      "constant": true
    },
    {
      "inputs": [],
      "name": "getAllResults",
      "outputs": [
        {
          "internalType": "string[]",
          "name": "",
          "type": "string[]"
        },
        {
          "internalType": "uint256[]",
          "name": "",
          "type": "uint256[]"
        }
      ],
      "stateMutability": "view",
      "type": "function",
      "constant": true
    },
    {
      "inputs": [],
      "name": "emitResults",
      "outputs": [],
      "stateMutability": "nonpayable",
      "type": "function"
    },
    {
      "inputs": [
        {
          "internalType": "uint256",
          "name": "start",
          "type": "uint256"
        },
        {
          "internalType": "uint256",
          "name": "end",
          "type": "uint256"
        }
      ],
      "name": "getResultsByRange",
      "outputs": [
        {
          "internalType": "string[]",
          "name": "",
          "type": "string[]"
        },
        {
          "internalType": "uint256[]",
          "name": "",
          "type": "uint256[]"
        }
      ],
      "stateMutability": "view",
      "type": "function",
      "constant": true
    }
  ],
  "bytecode": "0x608060405234801562000010575f80fd5b50335f806101000a81548173ffffffffffffffffffffffffffffffffffffffff021916908373ffffffffffffffffffffffffffffffffffffffff1602179055505f600260016101000a81548160ff0219169083600381111562000078576200007762000083565b5b0217905550620000b0565b7f4e487b71000000000000000000000000000000000000000000000000000000005f52602160045260245ffd5b612d0b80620000be5f395ff3fe608060405234801561000f575f80fd5b506004361061012a575f3560e01c806376d9be08116100ab578063a9a981a31161006f578063a9a981a31461031c578063b1c9fe6e1461033a578063c03afb5914610358578063c3c5a54714610374578063f5bebbf2146103a45761012a565b806376d9be081461026157806381a60c0d146102805780638da5cb5b146102b0578063972b4192146102ce578063a65fd9cd146102ec5761012a565b80633eb76b9c116100f25780633eb76b9c146101e5578063462e91ec1461020157806359f784681461021d5780635df813301461022757806362d73eb8146102575761012a565b806309eef43e1461012e578063234d21651461015e57806333005055146101685780633477ee2e1461019957806338db6dd3146101c9575b5f80fd5b61014860048036038101906101439190611b39565b6103c0565b6040516101559190611b7e565b60405180910390f35b6101666103dd565b005b610182600480360381019061017d9190611bca565b61059a565b604051610190929190611e04565b60405180910390f35b6101b360048036038101906101ae9190611e39565b610856565b6040516101c09190611eac565b60405180910390f35b6101e360048036038101906101de9190611b39565b6108f1565b005b6101ff60048036038101906101fa9190611e39565b610b0f565b005b61021b60048036038101906102169190611f2d565b610dfc565b005b610225611030565b005b610241600480360381019061023c9190611e39565b6111a7565b60405161024e9190611f87565b60405180910390f35b61025f6111bc565b005b610269611377565b604051610277929190611e04565b60405180910390f35b61029a60048036038101906102959190611e39565b6115c1565b6040516102a79190611f87565b60405180910390f35b6102b86116a3565b6040516102c59190611faf565b60405180910390f35b6102d66116c6565b6040516102e39190611b7e565b60405180910390f35b61030660048036038101906103019190611ffb565b6116d8565b6040516103139190611b7e565b60405180910390f35b6103246116f5565b6040516103319190611f87565b60405180910390f35b6103426116fb565b60405161034f9190612099565b60405180910390f35b610372600480360381019061036d91906120d5565b61170e565b005b61038e60048036038101906103899190611b39565b6118c4565b60405161039b9190611b7e565b60405180910390f35b6103be60048036038101906103b99190611f2d565b6118e1565b005b6006602052805f5260405f205f915054906101000a900460ff1681565b5f8054906101000a900473ffffffffffffffffffffffffffffffffffffffff1673ffffffffffffffffffffffffffffffffffffffff163373ffffffffffffffffffffffffffffffffffffffff161461046a576040517f08c379a00000000000000000000000000000000000000000000000000000000081526004016104619061214a565b60405180910390fd5b600380600381111561047f5761047e612026565b5b600260019054906101000a900460ff1660038111156104a1576104a0612026565b5b146104e1576040517f08c379a00000000000000000000000000000000000000000000000000000000081526004016104d8906121b2565b60405180910390fd5b5f600190505b6001548111610596577fe83b2a43e7e82d975c8a0a6d2f045153c869e111136a34d1889ab7b598e396a38160035f8481526020019081526020015f206040516105319291906122c0565b60405180910390a17fd0e6c39f2e086dc49f1524b47725526a56945cd1ff661f37976f1725a1e569865f60075f8481526020019081526020015f205460405161057b9291906122ee565b60405180910390a1808061058e90612342565b9150506104e7565b5050565b60608060038060038111156105b2576105b1612026565b5b600260019054906101000a900460ff1660038111156105d4576105d3612026565b5b14610614576040517f08c379a000000000000000000000000000000000000000000000000000000000815260040161060b906121b2565b60405180910390fd5b5f8511801561062557506001548411155b80156106315750838511155b610670576040517f08c379a0000000000000000000000000000000000000000000000000000000008152600401610667906123d3565b60405180910390fd5b5f6001868661067f91906123f1565b6106899190612424565b90505f8167ffffffffffffffff8111156106a6576106a5612457565b5b6040519080825280602002602001820160405280156106d957816020015b60608152602001906001900390816106c45790505b5090505f8267ffffffffffffffff8111156106f7576106f6612457565b5b6040519080825280602002602001820160405280156107255781602001602082028036833780820191505090505b5090505f8890505b8781116108445760035f8281526020019081526020015f208054610750906121fd565b80601f016020809104026020016040519081016040528092919081815260200182805461077c906121fd565b80156107c75780601f1061079e576101008083540402835291602001916107c7565b820191905f5260205f20905b8154815290600101906020018083116107aa57829003601f168201915b5050505050838a836107d991906123f1565b815181106107ea576107e9612484565b5b602002602001018190525060075f8281526020019081526020015f2054828a8361081491906123f1565b8151811061082557610824612484565b5b602002602001018181525050808061083c90612342565b91505061072d565b50818195509550505050509250929050565b6003602052805f5260405f205f915090508054610872906121fd565b80601f016020809104026020016040519081016040528092919081815260200182805461089e906121fd565b80156108e95780601f106108c0576101008083540402835291602001916108e9565b820191905f5260205f20905b8154815290600101906020018083116108cc57829003601f168201915b505050505081565b5f8054906101000a900473ffffffffffffffffffffffffffffffffffffffff1673ffffffffffffffffffffffffffffffffffffffff163373ffffffffffffffffffffffffffffffffffffffff161461097e576040517f08c379a00000000000000000000000000000000000000000000000000000000081526004016109759061214a565b60405180910390fd5b600180600381111561099357610992612026565b5b600260019054906101000a900460ff1660038111156109b5576109b4612026565b5b146109f5576040517f08c379a00000000000000000000000000000000000000000000000000000000081526004016109ec906121b2565b60405180910390fd5b60045f8373ffffffffffffffffffffffffffffffffffffffff1673ffffffffffffffffffffffffffffffffffffffff1681526020019081526020015f205f9054906101000a900460ff1615610a7f576040517f08c379a0000000000000000000000000000000000000000000000000000000008152600401610a76906124fb565b60405180910390fd5b600160045f8473ffffffffffffffffffffffffffffffffffffffff1673ffffffffffffffffffffffffffffffffffffffff1681526020019081526020015f205f6101000a81548160ff0219169083151502179055507fb6be2187d059cc2a55fe29e0e503b566e1e0f8c8780096e185429350acffd3dd82604051610b039190611faf565b60405180910390a15050565b6002806003811115610b2457610b23612026565b5b600260019054906101000a900460ff166003811115610b4657610b45612026565b5b14610b86576040517f08c379a0000000000000000000000000000000000000000000000000000000008152600401610b7d906121b2565b60405180910390fd5b60045f3373ffffffffffffffffffffffffffffffffffffffff1673ffffffffffffffffffffffffffffffffffffffff1681526020019081526020015f205f9054906101000a900460ff16610c0f576040517f08c379a0000000000000000000000000000000000000000000000000000000008152600401610c0690612563565b60405180910390fd5b60065f3373ffffffffffffffffffffffffffffffffffffffff1673ffffffffffffffffffffffffffffffffffffffff1681526020019081526020015f205f9054906101000a900460ff1615610c99576040517f08c379a0000000000000000000000000000000000000000000000000000000008152600401610c90906125cb565b60405180910390fd5b5f82118015610caa57506001548211155b80610d05575060055f60035f8581526020019081526020015f20604051602001610cd49190612673565b6040516020818303038152906040528051906020012081526020019081526020015f205f9054906101000a900460ff165b610d44576040517f08c379a0000000000000000000000000000000000000000000000000000000008152600401610d3b906126d3565b60405180910390fd5b60075f8381526020019081526020015f205f815480929190610d6590612342565b9190505550600160065f3373ffffffffffffffffffffffffffffffffffffffff1673ffffffffffffffffffffffffffffffffffffffff1681526020019081526020015f205f6101000a81548160ff0219169083151502179055507fd0e6c39f2e086dc49f1524b47725526a56945cd1ff661f37976f1725a1e569863383604051610df09291906122ee565b60405180910390a15050565b5f8054906101000a900473ffffffffffffffffffffffffffffffffffffffff1673ffffffffffffffffffffffffffffffffffffffff163373ffffffffffffffffffffffffffffffffffffffff1614610e89576040517f08c379a0000000000000000000000000000000000000000000000000000000008152600401610e809061214a565b60405180910390fd5b6001806003811115610e9e57610e9d612026565b5b600260019054906101000a900460ff166003811115610ec057610ebf612026565b5b14610f00576040517f08c379a0000000000000000000000000000000000000000000000000000000008152600401610ef7906121b2565b60405180910390fd5b5f8383604051602001610f14929190612723565b60405160208183030381529060405280519060200120905060085f8281526020019081526020015f205f9054906101000a900460ff1615610f8a576040517f08c379a0000000000000000000000000000000000000000000000000000000008152600401610f8190612785565b60405180910390fd5b600160085f8381526020019081526020015f205f6101000a81548160ff02191690831515021790555060015f815480929190610fc590612342565b9190505550838360035f60015481526020019081526020015f209182610fec929190612938565b507fe83b2a43e7e82d975c8a0a6d2f045153c869e111136a34d1889ab7b598e396a3600154858560405161102293929190612a31565b60405180910390a150505050565b5f8054906101000a900473ffffffffffffffffffffffffffffffffffffffff1673ffffffffffffffffffffffffffffffffffffffff163373ffffffffffffffffffffffffffffffffffffffff16146110bd576040517f08c379a00000000000000000000000000000000000000000000000000000000081526004016110b49061214a565b60405180910390fd5b60028060038111156110d2576110d1612026565b5b600260019054906101000a900460ff1660038111156110f4576110f3612026565b5b14611134576040517f08c379a000000000000000000000000000000000000000000000000000000000815260040161112b906121b2565b60405180910390fd5b6003600260016101000a81548160ff0219169083600381111561115a57611159612026565b5b02179055505f60025f6101000a81548160ff0219169083151502179055507f66ec723071e4bb646f7b35d31bc2dee8510979bd8c180edd0690d4f5e802f1e460405160405180910390a150565b6007602052805f5260405f205f915090505481565b5f8054906101000a900473ffffffffffffffffffffffffffffffffffffffff1673ffffffffffffffffffffffffffffffffffffffff163373ffffffffffffffffffffffffffffffffffffffff1614611249576040517f08c379a00000000000000000000000000000000000000000000000000000000081526004016112409061214a565b60405180910390fd5b600180600381111561125e5761125d612026565b5b600260019054906101000a900460ff1660038111156112805761127f612026565b5b146112c0576040517f08c379a00000000000000000000000000000000000000000000000000000000081526004016112b7906121b2565b60405180910390fd5b5f60015411611304576040517f08c379a00000000000000000000000000000000000000000000000000000000081526004016112fb90612ad1565b60405180910390fd5b60028060016101000a81548160ff0219169083600381111561132957611328612026565b5b0217905550600160025f6101000a81548160ff0219169083151502179055507fc475c26aa25ed8e85a7faa790e5f63b5d7ee1025f12821f4c9bfddd36ab4d11260405160405180910390a150565b606080600380600381111561138f5761138e612026565b5b600260019054906101000a900460ff1660038111156113b1576113b0612026565b5b146113f1576040517f08c379a00000000000000000000000000000000000000000000000000000000081526004016113e8906121b2565b60405180910390fd5b5f60015467ffffffffffffffff81111561140e5761140d612457565b5b60405190808252806020026020018201604052801561144157816020015b606081526020019060019003908161142c5790505b5090505f60015467ffffffffffffffff81111561146157611460612457565b5b60405190808252806020026020018201604052801561148f5781602001602082028036833780820191505090505b5090505f600190505b60015481116115b35760035f8281526020019081526020015f2080546114bd906121fd565b80601f01602080910402602001604051908101604052809291908181526020018280546114e9906121fd565b80156115345780601f1061150b57610100808354040283529160200191611534565b820191905f5260205f20905b81548152906001019060200180831161151757829003601f168201915b50505050508360018361154791906123f1565b8151811061155857611557612484565b5b602002602001018190525060075f8281526020019081526020015f20548260018361158391906123f1565b8151811061159457611593612484565b5b60200260200101818152505080806115ab90612342565b915050611498565b508181945094505050509091565b5f60038060038111156115d7576115d6612026565b5b600260019054906101000a900460ff1660038111156115f9576115f8612026565b5b14611639576040517f08c379a0000000000000000000000000000000000000000000000000000000008152600401611630906121b2565b60405180910390fd5b5f8311801561164a57506001548311155b611689576040517f08c379a0000000000000000000000000000000000000000000000000000000008152600401611680906126d3565b60405180910390fd5b60075f8481526020019081526020015f2054915050919050565b5f8054906101000a900473ffffffffffffffffffffffffffffffffffffffff1681565b60025f9054906101000a900460ff1681565b6005602052805f5260405f205f915054906101000a900460ff1681565b60015481565b600260019054906101000a900460ff1681565b5f8054906101000a900473ffffffffffffffffffffffffffffffffffffffff1673ffffffffffffffffffffffffffffffffffffffff163373ffffffffffffffffffffffffffffffffffffffff161461179b576040517f08c379a00000000000000000000000000000000000000000000000000000000081526004016117929061214a565b60405180910390fd5b6001600260019054906101000a900460ff1660038111156117bf576117be612026565b5b6117c99190612afb565b60ff168160038111156117df576117de612026565b5b60ff1614611822576040517f08c379a000000000000000000000000000000000000000000000000000000000815260040161181990612b9f565b60405180910390fd5b60038081111561183557611834612026565b5b600260019054906101000a900460ff16600381111561185757611856612026565b5b03611897576040517f08c379a000000000000000000000000000000000000000000000000000000000815260040161188e90612c07565b60405180910390fd5b80600260016101000a81548160ff021916908360038111156118bc576118bb612026565b5b021790555050565b6004602052805f5260405f205f915054906101000a900460ff1681565b5f8054906101000a900473ffffffffffffffffffffffffffffffffffffffff1673ffffffffffffffffffffffffffffffffffffffff163373ffffffffffffffffffffffffffffffffffffffff161461196e576040517f08c379a00000000000000000000000000000000000000000000000000000000081526004016119659061214a565b60405180910390fd5b600180600381111561198357611982612026565b5b600260019054906101000a900460ff1660038111156119a5576119a4612026565b5b146119e5576040517f08c379a00000000000000000000000000000000000000000000000000000000081526004016119dc906121b2565b60405180910390fd5b5f83836040516020016119f9929190612723565b60405160208183030381529060405280519060200120905060055f8281526020019081526020015f205f9054906101000a900460ff1615611a6f576040517f08c379a0000000000000000000000000000000000000000000000000000000008152600401611a6690612c95565b60405180910390fd5b600160055f8381526020019081526020015f205f6101000a81548160ff0219169083151502179055507fef3a93bd3eddf25ebe7f30119c8b78c2b8e47c9a0b3531af4d5658b9171a386f8484604051611ac9929190612cb3565b60405180910390a150505050565b5f80fd5b5f80fd5b5f73ffffffffffffffffffffffffffffffffffffffff82169050919050565b5f611b0882611adf565b9050919050565b611b1881611afe565b8114611b22575f80fd5b50565b5f81359050611b3381611b0f565b92915050565b5f60208284031215611b4e57611b4d611ad7565b5b5f611b5b84828501611b25565b91505092915050565b5f8115159050919050565b611b7881611b64565b82525050565b5f602082019050611b915f830184611b6f565b92915050565b5f819050919050565b611ba981611b97565b8114611bb3575f80fd5b50565b5f81359050611bc481611ba0565b92915050565b5f8060408385031215611be057611bdf611ad7565b5b5f611bed85828601611bb6565b9250506020611bfe85828601611bb6565b9150509250929050565b5f81519050919050565b5f82825260208201905092915050565b5f819050602082019050919050565b5f81519050919050565b5f82825260208201905092915050565b5f5b83811015611c68578082015181840152602081019050611c4d565b5f8484015250505050565b5f601f19601f8301169050919050565b5f611c8d82611c31565b611c978185611c3b565b9350611ca7818560208601611c4b565b611cb081611c73565b840191505092915050565b5f611cc68383611c83565b905092915050565b5f602082019050919050565b5f611ce482611c08565b611cee8185611c12565b935083602082028501611d0085611c22565b805f5b85811015611d3b5784840389528151611d1c8582611cbb565b9450611d2783611cce565b925060208a01995050600181019050611d03565b50829750879550505050505092915050565b5f81519050919050565b5f82825260208201905092915050565b5f819050602082019050919050565b611d7f81611b97565b82525050565b5f611d908383611d76565b60208301905092915050565b5f602082019050919050565b5f611db282611d4d565b611dbc8185611d57565b9350611dc783611d67565b805f5b83811015611df7578151611dde8882611d85565b9750611de983611d9c565b925050600181019050611dca565b5085935050505092915050565b5f6040820190508181035f830152611e1c8185611cda565b90508181036020830152611e308184611da8565b90509392505050565b5f60208284031215611e4e57611e4d611ad7565b5b5f611e5b84828501611bb6565b91505092915050565b5f82825260208201905092915050565b5f611e7e82611c31565b611e888185611e64565b9350611e98818560208601611c4b565b611ea181611c73565b840191505092915050565b5f6020820190508181035f830152611ec48184611e74565b905092915050565b5f80fd5b5f80fd5b5f80fd5b5f8083601f840112611eed57611eec611ecc565b5b8235905067ffffffffffffffff811115611f0a57611f09611ed0565b5b602083019150836001820283011115611f2657611f25611ed4565b5b9250929050565b5f8060208385031215611f4357611f42611ad7565b5b5f83013567ffffffffffffffff811115611f6057611f5f611adb565b5b611f6c85828601611ed8565b92509250509250929050565b611f8181611b97565b82525050565b5f602082019050611f9a5f830184611f78565b92915050565b611fa981611afe565b82525050565b5f602082019050611fc25f830184611fa0565b92915050565b5f819050919050565b611fda81611fc8565b8114611fe4575f80fd5b50565b5f81359050611ff581611fd1565b92915050565b5f602082840312156120105761200f611ad7565b5b5f61201d84828501611fe7565b91505092915050565b7f4e487b71000000000000000000000000000000000000000000000000000000005f52602160045260245ffd5b6004811061206457612063612026565b5b50565b5f81905061207482612053565b919050565b5f61208382612067565b9050919050565b61209381612079565b82525050565b5f6020820190506120ac5f83018461208a565b92915050565b600481106120be575f80fd5b50565b5f813590506120cf816120b2565b92915050565b5f602082840312156120ea576120e9611ad7565b5b5f6120f7848285016120c1565b91505092915050565b7f596f7520617265206e6f7420746865206f776e657200000000000000000000005f82015250565b5f612134601583611e64565b915061213f82612100565b602082019050919050565b5f6020820190508181035f83015261216181612128565b9050919050565b7f496e76616c696420706861736520666f72207468697320616374696f6e0000005f82015250565b5f61219c601d83611e64565b91506121a782612168565b602082019050919050565b5f6020820190508181035f8301526121c981612190565b9050919050565b7f4e487b71000000000000000000000000000000000000000000000000000000005f52602260045260245ffd5b5f600282049050600182168061221457607f821691505b602082108103612227576122266121d0565b5b50919050565b5f819050815f5260205f209050919050565b5f815461224b816121fd565b6122558186611e64565b9450600182165f811461226f5760018114612285576122b7565b60ff1983168652811515602002860193506122b7565b61228e8561222d565b5f5b838110156122af57815481890152600182019150602081019050612290565b808801955050505b50505092915050565b5f6040820190506122d35f830185611f78565b81810360208301526122e5818461223f565b90509392505050565b5f6040820190506123015f830185611fa0565b61230e6020830184611f78565b9392505050565b7f4e487b71000000000000000000000000000000000000000000000000000000005f52601160045260245ffd5b5f61234c82611b97565b91507fffffffffffffffffffffffffffffffffffffffffffffffffffffffffffffffff820361237e5761237d612315565b5b600182019050919050565b7f496e76616c69642072616e6765000000000000000000000000000000000000005f82015250565b5f6123bd600d83611e64565b91506123c882612389565b602082019050919050565b5f6020820190508181035f8301526123ea816123b1565b9050919050565b5f6123fb82611b97565b915061240683611b97565b925082820390508181111561241e5761241d612315565b5b92915050565b5f61242e82611b97565b915061243983611b97565b925082820190508082111561245157612450612315565b5b92915050565b7f4e487b71000000000000000000000000000000000000000000000000000000005f52604160045260245ffd5b7f4e487b71000000000000000000000000000000000000000000000000000000005f52603260045260245ffd5b7f566f74657220697320616c7265616479207265676973746572656400000000005f82015250565b5f6124e5601b83611e64565b91506124f0826124b1565b602082019050919050565b5f6020820190508181035f830152612512816124d9565b9050919050565b7f596f7520617265206e6f742061207265676973746572656420766f74657200005f82015250565b5f61254d601e83611e64565b915061255882612519565b602082019050919050565b5f6020820190508181035f83015261257a81612541565b9050919050565b7f596f75206861766520616c726561647920766f746564000000000000000000005f82015250565b5f6125b5601683611e64565b91506125c082612581565b602082019050919050565b5f6020820190508181035f8301526125e2816125a9565b9050919050565b5f81905092915050565b5f81546125ff816121fd565b61260981866125e9565b9450600182165f811461262357600181146126385761266a565b60ff198316865281151582028601935061266a565b6126418561222d565b5f5b8381101561266257815481890152600182019150602081019050612643565b838801955050505b50505092915050565b5f61267e82846125f3565b915081905092915050565b7f496e76616c69642063616e6469646174652049440000000000000000000000005f82015250565b5f6126bd601483611e64565b91506126c882612689565b602082019050919050565b5f6020820190508181035f8301526126ea816126b1565b9050919050565b828183375f83830152505050565b5f61270a83856125e9565b93506127178385846126f1565b82840190509392505050565b5f61272f8284866126ff565b91508190509392505050565b7f43616e646964617465206e616d6520616c7265616479206578697374730000005f82015250565b5f61276f601d83611e64565b915061277a8261273b565b602082019050919050565b5f6020820190508181035f83015261279c81612763565b9050919050565b5f82905092915050565b5f6020601f8301049050919050565b5f82821b905092915050565b5f600883026127f77fffffffffffffffffffffffffffffffffffffffffffffffffffffffffffffffff826127bc565b61280186836127bc565b95508019841693508086168417925050509392505050565b5f819050919050565b5f61283c61283761283284611b97565b612819565b611b97565b9050919050565b5f819050919050565b61285583612822565b61286961286182612843565b8484546127c8565b825550505050565b5f90565b61287d612871565b61288881848461284c565b505050565b5b818110156128ab576128a05f82612875565b60018101905061288e565b5050565b601f8211156128f0576128c18161222d565b6128ca846127ad565b810160208510156128d9578190505b6128ed6128e5856127ad565b83018261288d565b50505b505050565b5f82821c905092915050565b5f6129105f19846008026128f5565b1980831691505092915050565b5f6129288383612901565b9150826002028217905092915050565b61294283836127a3565b67ffffffffffffffff81111561295b5761295a612457565b5b61296582546121fd565b6129708282856128af565b5f601f83116001811461299d575f841561298b578287013590505b612995858261291d565b8655506129fc565b601f1984166129ab8661222d565b5f5b828110156129d2578489013582556001820191506020850194506020810190506129ad565b868310156129ef57848901356129eb601f891682612901565b8355505b6001600288020188555050505b50505050505050565b5f612a108385611e64565b9350612a1d8385846126f1565b612a2683611c73565b840190509392505050565b5f604082019050612a445f830186611f78565b8181036020830152612a57818486612a05565b9050949350505050565b7f4e6f2063616e6469646174657320746f2073746172742074686520656c6563745f8201527f696f6e0000000000000000000000000000000000000000000000000000000000602082015250565b5f612abb602383611e64565b9150612ac682612a61565b604082019050919050565b5f6020820190508181035f830152612ae881612aaf565b9050919050565b5f60ff82169050919050565b5f612b0582612aef565b9150612b1083612aef565b9250828201905060ff811115612b2957612b28612315565b5b92915050565b7f506861736573206d757374207472616e736974696f6e2073657175656e7469615f8201527f6c6c790000000000000000000000000000000000000000000000000000000000602082015250565b5f612b89602383611e64565b9150612b9482612b2f565b604082019050919050565b5f6020820190508181035f830152612bb681612b7d565b9050919050565b7f456c656374696f6e2068617320656e64656400000000000000000000000000005f82015250565b5f612bf1601283611e64565b9150612bfc82612bbd565b602082019050919050565b5f6020820190508181035f830152612c1e81612be5565b9050919050565b7f57726974652d696e2063616e64696461746520616c726561647920617070726f5f8201527f7665640000000000000000000000000000000000000000000000000000000000602082015250565b5f612c7f602383611e64565b9150612c8a82612c25565b604082019050919050565b5f6020820190508181035f830152612cac81612c73565b9050919050565b5f6020820190508181035f830152612ccc818486612a05565b9050939250505056fea2646970667358221220503d9cc5ae790c3f3edd847fd32ff7959835dc3b0d703d4c65037301c872ea8964736f6c63430008150033",
  "immutableReferences": {},
  "source": "// SPDX-License-Identifier: MIT\r\npragma solidity ^0.8.0;\r\n\r\nimport \"./IVotingSystem.sol\";\r\n\r\n/// @title Blockchain Voting System\r\n/// @notice Implements a secure and transparent voting system\r\ncontract VotingContract is IVotingSystem {\r\n    // State variables\r\n    address public owner; // Address of the contract owner\r\n    uint256 public candidateCount; // Tracks the total number of candidates\r\n    bool public electionOngoing; // Indicates if the election is currently active\r\n\r\n    /// @notice Defines the phases of an election\r\n    /// @dev Ensures the election progresses in a structured way\r\n    enum ElectionPhase { NotStarted, Registration, Voting, Ended }\r\n    ElectionPhase public phase; // Current phase of the election\r\n\r\n    mapping(uint256 => string) public candidates; // Maps candidate IDs to their names\r\n    mapping(address => bool) public isRegistered; // Tracks registered voters\r\n    mapping(bytes32 => bool) public approvedWriteIns; // Tracks approved write-in candidates (hashed)\r\n    mapping(address => bool) public hasVoted; // Tracks whether an address has already voted\r\n    mapping(uint256 => uint256) public votes; // Tracks votes for each candidate by ID\r\n\r\n    mapping(bytes32 => bool) private candidateNameHashes; // To track unique candidate names\r\n\r\n\r\n    /// @notice Initializes the contract and sets the owner\r\n    constructor() {\r\n        owner = msg.sender;\r\n        phase = ElectionPhase.NotStarted;\r\n    }\r\n\r\n    /// @notice Restricts function access to the owner\r\n    modifier onlyOwner() {\r\n        require(msg.sender == owner, \"You are not the owner\");\r\n        _;\r\n    }\r\n\r\n    /// @notice Restricts functions to specific election phases\r\n    /// @param _phase The required phase for the function to execute\r\n    modifier inPhase(ElectionPhase _phase) {\r\n        require(phase == _phase, \"Invalid phase for this action\");\r\n        _;\r\n    }\r\n\r\n    /// @notice Registers a voter\r\n    /// @param _voter Address of the voter\r\n    function registerVoter(address _voter) external override onlyOwner inPhase(ElectionPhase.Registration){\r\n    require(!isRegistered[_voter], \"Voter is already registered\"); // Prevent duplicate registrations\r\n    isRegistered[_voter] = true; // Mark the voter as registered\r\n    emit VoterRegistered(_voter); // Emit the registration event\r\n    }\r\n\r\n    /// @notice Sets the current phase of the election\r\n    /// @param _phase The phase to transition to\r\n    function setPhase(ElectionPhase _phase) external onlyOwner {\r\n        require(uint8(_phase) == uint8(phase) + 1, \"Phases must transition sequentially\");\r\n        require(phase != ElectionPhase.Ended, \"Election has ended\");\r\n        phase = _phase;\r\n    }\r\n\r\n    /// @notice Adds a new candidate during the registration phase\r\n    /// @param _name The name of the candidate\r\n    function addCandidate(string calldata _name) external onlyOwner inPhase(ElectionPhase.Registration) {\r\n        bytes32 nameHash = keccak256(abi.encodePacked(_name));\r\n        require(!candidateNameHashes[nameHash], \"Candidate name already exists\"); // Prevent duplicates\r\n        candidateNameHashes[nameHash] = true;\r\n\r\n        candidateCount++;\r\n        candidates[candidateCount] = _name;\r\n        emit CandidateAdded(candidateCount, _name);\r\n    }\r\n\r\n    /// @notice Approves a write-in candidate during the registration phase\r\n    /// @param _name The name of the write-in candidate\r\n    function approveWriteIn(string calldata _name) external onlyOwner inPhase(ElectionPhase.Registration) {\r\n        bytes32 nameHash = keccak256(abi.encodePacked(_name)); \r\n        require(!approvedWriteIns[nameHash], \"Write-in candidate already approved\");\r\n        approvedWriteIns[nameHash] = true;\r\n        emit WriteInApproved(_name);\r\n    }\r\n\r\n\r\n    /// @notice Starts the election, transitioning to the voting phase\r\n    function startElection() external onlyOwner inPhase(ElectionPhase.Registration) {\r\n        require(candidateCount > 0, \"No candidates to start the election\");\r\n        phase = ElectionPhase.Voting;\r\n        electionOngoing = true;\r\n        emit ElectionStarted();\r\n    }\r\n\r\n    /// @notice Allows a voter to cast their vote\r\n    /// @param _candidateId The ID of the candidate to vote for\r\n    function castVote(uint256 _candidateId) external inPhase(ElectionPhase.Voting) {\r\n        require(isRegistered[msg.sender], \"You are not a registered voter\");\r\n        require(!hasVoted[msg.sender], \"You have already voted\");\r\n        require(\r\n            (_candidateId > 0 && _candidateId <= candidateCount) ||\r\n            approvedWriteIns[keccak256(abi.encodePacked(candidates[_candidateId]))],\r\n            \"Invalid candidate ID\"\r\n        );\r\n\r\n        votes[_candidateId]++;\r\n        hasVoted[msg.sender] = true;\r\n        emit VoteCasted(msg.sender, _candidateId);\r\n    }\r\n\r\n    /// @notice Ends the election, transitioning to the ended phase\r\n    function endElection() external onlyOwner inPhase(ElectionPhase.Voting) {\r\n        phase = ElectionPhase.Ended;\r\n        electionOngoing = false;\r\n        emit ElectionEnded();\r\n    }\r\n\r\n    /// @notice Retrieves results for a specific candidate\r\n    /// @param _candidateId The ID of the candidate\r\n    /// @return The number of votes for the candidate\r\n    function getResults(uint256 _candidateId) external view inPhase(ElectionPhase.Ended) returns (uint256) {\r\n        require(_candidateId > 0 && _candidateId <= candidateCount, \"Invalid candidate ID\");\r\n        return votes[_candidateId];\r\n    }\r\n\r\n    /// @notice Retrieves results for all candidates\r\n    /// @return Arrays containing candidate names and their respective vote counts\r\n    function getAllResults() external view override inPhase(ElectionPhase.Ended) returns (string[] memory, uint256[] memory) {\r\n        string[] memory candidateNames = new string[](candidateCount);\r\n        uint256[] memory candidateVotes = new uint256[](candidateCount);\r\n\r\n        for (uint256 i = 1; i <= candidateCount; i++) {\r\n            candidateNames[i - 1] = candidates[i];\r\n            candidateVotes[i - 1] = votes[i];\r\n        }\r\n\r\n        return (candidateNames, candidateVotes);\r\n    }\r\n\r\n    /// @notice Retrieves results for all candidates (emit event for off-chain processing)\r\n    function emitResults() external onlyOwner inPhase(ElectionPhase.Ended) {\r\n        for (uint256 i = 1; i <= candidateCount; i++) {\r\n            emit CandidateAdded(i, candidates[i]); // Log each candidate with their ID\r\n            emit VoteCasted(address(0), votes[i]); // Log each candidate's vote count\r\n        }\r\n    }\r\n\r\n    /// @notice Retrieves results for a range of candidates\r\n    /// @param start The starting candidate ID (inclusive)\r\n    /// @param end The ending candidate ID (inclusive)\r\n    /// @return Arrays containing candidate names and their respective vote counts\r\n    function getResultsByRange(uint256 start, uint256 end) external view inPhase(ElectionPhase.Ended) returns (string[] memory, uint256[] memory) {\r\n        require(start > 0 && end <= candidateCount && start <= end, \"Invalid range\");\r\n        uint256 rangeSize = end - start + 1;\r\n\r\n        string[] memory candidateNames = new string[](rangeSize);\r\n        uint256[] memory candidateVotes = new uint256[](rangeSize);\r\n\r\n        for (uint256 i = start; i <= end; i++) {\r\n            candidateNames[i - start] = candidates[i];\r\n            candidateVotes[i - start] = votes[i];\r\n        }\r\n\r\n        return (candidateNames, candidateVotes);\r\n    }\r\n}\r\n",
  "sourcePath": "C:\\Users\\pbeau\\Blockchain\\blockchain-voting-system\\contracts\\VotingContract.sol",
  "compiler": {
    "name": "solc",
    "version": "0.8.21+commit.d9974bed.Emscripten.clang"
  },
  "schemaVersion": "3.4.16",
  "updatedAt": "2024-12-11T22:10:48.462Z",
  "networkType": "ethereum",
  "devdoc": {
    "events": {
      "CandidateAdded(uint256,string)": {
        "params": {
          "candidateId": "ID of the candidate added",
          "name": "Name of the candidate"
        }
      },
      "VoteCasted(address,uint256)": {
        "params": {
          "candidateId": "ID of the candidate voted for",
          "voter": "Address of the voter"
        }
      },
      "VoterRegistered(address)": {
        "params": {
          "voter": "Address of the voter"
        }
      },
      "WriteInApproved(string)": {
        "params": {
          "name": "Name of the approved write-in candidate"
        }
      }
    },
    "kind": "dev",
    "methods": {
      "addCandidate(string)": {
        "params": {
          "_name": "The name of the candidate"
        }
      },
      "approveWriteIn(string)": {
        "params": {
          "_name": "The name of the write-in candidate"
        }
      },
      "castVote(uint256)": {
        "params": {
          "_candidateId": "The ID of the candidate to vote for"
        }
      },
      "getAllResults()": {
        "returns": {
          "_0": "Arrays containing candidate names and their respective vote counts"
        }
      },
      "getResults(uint256)": {
        "params": {
          "_candidateId": "The ID of the candidate"
        },
        "returns": {
          "_0": "The number of votes for the candidate"
        }
      },
      "getResultsByRange(uint256,uint256)": {
        "params": {
          "end": "The ending candidate ID (inclusive)",
          "start": "The starting candidate ID (inclusive)"
        },
        "returns": {
          "_0": "Arrays containing candidate names and their respective vote counts"
        }
      },
      "registerVoter(address)": {
        "params": {
          "_voter": "Address of the voter"
        }
      },
      "setPhase(uint8)": {
        "params": {
          "_phase": "The phase to transition to"
        }
      }
    },
    "title": "Blockchain Voting System",
    "version": 1
  },
  "userdoc": {
    "events": {
      "CandidateAdded(uint256,string)": {
        "notice": "Emitted when a candidate is added"
      },
      "ElectionEnded()": {
        "notice": "Emitted when the election ends"
      },
      "ElectionStarted()": {
        "notice": "Emitted when the election starts"
      },
      "VoteCasted(address,uint256)": {
        "notice": "Emitted when a vote is cast"
      },
      "VoterRegistered(address)": {
        "notice": "Emitted when a voter registers"
      },
      "WriteInApproved(string)": {
        "notice": "Emitted when a write-in candidate is approved"
      }
    },
    "kind": "user",
    "methods": {
      "addCandidate(string)": {
        "notice": "Adds a new candidate during the registration phase"
      },
      "approveWriteIn(string)": {
        "notice": "Approves a write-in candidate during the registration phase"
      },
      "castVote(uint256)": {
        "notice": "Allows a voter to cast their vote"
      },
      "constructor": {
        "notice": "Initializes the contract and sets the owner"
      },
      "emitResults()": {
        "notice": "Retrieves results for all candidates (emit event for off-chain processing)"
      },
      "endElection()": {
        "notice": "Ends the election, transitioning to the ended phase"
      },
      "getAllResults()": {
        "notice": "Retrieves results for all candidates"
      },
      "getResults(uint256)": {
        "notice": "Retrieves results for a specific candidate"
      },
      "getResultsByRange(uint256,uint256)": {
        "notice": "Retrieves results for a range of candidates"
      },
      "registerVoter(address)": {
        "notice": "Registers a voter"
      },
      "setPhase(uint8)": {
        "notice": "Sets the current phase of the election"
      },
      "startElection()": {
        "notice": "Starts the election, transitioning to the voting phase"
      }
    },
    "notice": "Implements a secure and transparent voting system",
    "version": 1
  }
}